:020000040800F2
:10000000000002209D1E0008A3090008A5090008A1
:10001000A7090008A9090008AB09000800000000B2
:10002000000000000000000000000000AD09000812
:10003000AF09000800000000B1090008B30900087A
:10004000ED1E0008ED1E0008ED1E0008ED1E000864
:10005000ED1E0008ED1E0008ED1E0008ED1E000854
:10006000ED1E0008ED1E0008ED1E0008ED1E000844
:10007000ED1E0008ED1E0008ED1E0008ED1E000834
:10008000ED1E0008ED1E0008ED1E00080000000037
:10009000000000000000000000000000ED1E00084D
:1000A000ED1E0008ED1E0008ED1E0008ED1E000804
:1000B000ED1E0008ED1E0008ED1E0008ED1E0008F4
:1000C000ED1E0008ED1E0008ED1E0008ED1E0008E4
:1000D000ED1E0008ED1E0008ED1E000800000000E7
:1000E000ED1E0008ED1E0008ED1E000800000000D7
:1000F000000000000000000000000000ED1E0008ED
:1001000000000000ED1E0008ED1E0008ED1E0008B6
:1001100000000000000000000000000000000000DF
:10012000ED1E0008ED1E0008ED1E0008ED1E000883
:10013000ED1E0008000000000000000000000000AC
:10014000000000000000000000000000ED1E00089C
:10015000ED1E0008ED1E0008ED1E0008ED1E000853
:10016000ED1E0008ED1E0008000000000000000069
:10017000000000000000000000000000000000007F
:1001800000000000ED1E000800000000000000005C
:08019000ED1E0008ED1E000841
:1001A00001F0FF01102A2BDB10F0070F08D010F828
:1001B000013B013A8B422DD010F0070F42B3F6D12C
:1001C000F0B441EA012141EA014122F007047FF045
:1001D00000070023F0E80256083C85EA010586EA9C
:1001E000010685FA47F5A3FA87F586FA47F6A5FAD8
:1001F00087F68EB9EED1F0BC01F0FF0102F00702E4
:1002000032B110F8013B013A83EA010313B1F8D18E
:100210000020704701387047002D06BF354603386F
:10022000073815F0010F07D1013015F4807F02BFA8
:10023000013015F4C03F0130F0BC0138704700BFF9
:1002400081F0004102E000BF83F0004330B54FEA87
:1002500041044FEA430594EA050F08BF90EA020FF4
:100260001FBF54EA000C55EA020C7FEA645C7FEA87
:10027000655C00F0E2804FEA5454D4EB5555B8BFAA
:100280006D420CDD2C4480EA020281EA030382EA1B
:10029000000083EA010180EA020281EA0303362DAD
:1002A00088BF30BD11F0004F4FEA01314FF4801C80
:1002B0004CEA113102D0404261EB410113F0004F92
:1002C0004FEA03334CEA133302D0524263EB430349
:1002D00094EA050F00F0A780A4F10104D5F1200EE7
:1002E0000DDB02FA0EFC22FA05F2801841F1000142
:1002F00003FA0EF2801843FA05F359410EE0A5F116
:1003000020050EF1200E012A03FA0EFC28BF4CF046
:10031000020C43FA05F3C01851EBE37101F00045FC
:1003200007D54FF0000EDCF1000C7EEB00006EEB09
:100330000101B1F5801F1BD3B1F5001F0CD3490893
:100340005FEA30004FEA3C0C04F101044FEA4452EA
:1003500012F5800F80F09A80BCF1004F08BF5FEA71
:10036000500C50F1000041EB045141EA050130BD51
:100370005FEA4C0C404141EB0101013C28BFB1F563
:10038000801FE9D291F0000F04BF01460020B1FAAE
:1003900081F308BF2033A3F10B03B3F120020CDA81
:1003A0000C3208DD02F1140CC2F10C0201FA0CF05F
:1003B00021FA02F10CE002F11402D8BFC2F1200CC4
:1003C00001FA02F120FA0CFCDCBF41EA0C0190407A
:1003D000E41AA2BF01EB0451294330BD6FEA0404C3
:1003E0001F3C1CDA0C340EDC04F11404C4F12002AE
:1003F00020FA04F001FA02F340EA030021FA04F3C0
:1004000045EA030130BDC4F10C04C4F1200220FA16
:1004100002F001FA04F340EA0300294630BD21FA54
:1004200004F0294630BD94F0000F83F4801306BF1A
:1004300081F480110134013D4EE77FEA645C18BF0E
:100440007FEA655C29D094EA050F08BF90EA020FA5
:1004500005D054EA000C04BF1946104630BD91EA9D
:10046000030F1EBF0021002030BD5FEA545C05D1A0
:100470004000494128BF41F0004130BD14F58004DF
:100480003CBF01F5801130BD01F0004545F0FE4153
:1004900041F470014FF0000030BD7FEA645C1ABF88
:1004A000194610467FEA655C1CBF0B46024650EABF
:1004B000013406BF52EA033591EA030F41F40021EB
:1004C00030BD00BF90F0000F04BF0021704730B571
:1004D0004FF4806404F132044FF000054FF0000146
:1004E00050E700BF90F0000F04BF0021704730B507
:1004F0004FF4806404F1320410F0004548BF4042DC
:100500004FF000013EE700BF42004FEAE2014FEA30
:1005100031014FEA02701FBF12F07F4393F07F4F0B
:1005200081F06051704732F07F4208BF704793F00E
:100530007F4F04BF41F40021704730B54FF4607421
:1005400001F0004521F000411CE700BF50EA010224
:1005500008BF704730B54FF000050AE050EA0102CD
:1005600008BF704730B511F0004502D5404261EB3D
:1005700041014FF4806404F132045FEA915C3FF47E
:10058000D8AE4FF003025FEADC0C18BF03325FEA1B
:10059000DC0C18BF033202EBDC02C2F1200300FACC
:1005A00003FC20FA02F001FA03FE40EA0E0021FAF1
:1005B00002F11444BDE600BF53B94AB9002908BF8F
:1005C00000281CBF4FF0FF314FF0FF3000F00CB897
:1005D000ADF1080C6DE904CE02F020FCDDF804E07A
:1005E000DDE9022304B07047704700BF10B5054C29
:1005F000237833B9044B13B10448AFF300800123CF
:10060000237010BD6800002000000000D4300008F6
:1006100008B5034B1BB103490348AFF3008008BD85
:10062000000000006C000020D430000870B58AB0D3
:1006300005AD002405940694079408940994019448
:10064000224B1A6B42F004021A631A6B02F0040286
:100650000192019A02941A6B42F080021A631A6B9B
:1006600002F080020292029A03941A6B42F0010295
:100670001A631A6B02F001020392039A04941A6B34
:1006800042F002021A631B6B03F002030493049B03
:100690000F4E22462021304601F018FA4FF4005345
:1006A00005934FF40413069307942946094801F073
:1006B0001DF92023059301230693079408942946E6
:1006C000304601F013F90AB070BD00BF0038024097
:1006D000000002400008024072B6FEE708B50D486F
:1006E0000D4B03604FF48273436000238360C3604B
:1006F000036143614FF4007282610822C2610362A8
:10070000436283620A23C36200F0E4FA00B908BDC1
:10071000FFF7E2FFCC0000200038004008B50A488F
:100720000A4B03604FF4E133436000238360C360EE
:1007300003610C2242618361C36101F025FB00B9B2
:1007400008BDFFF7C9FF00BF84000020004400403F
:1007500010B594B008AC30220021204601F0D6FD3F
:1007600000230393049305930693079301931D4A73
:10077000116C41F080511164126C02F080520192B0
:10078000019A0293184A116841F4404111601268BD
:1007900002F440420292029A0221089101220B9235
:1007A00010220C920E910F9310924FF4A873119394
:1007B000042312931393204600F078FD70B90F23A1
:1007C00003930221049105904FF480520692079002
:1007D00003A800F0BFFF18B914B010BDFFF77CFFED
:1007E000FFF77AFF003802400070004000B589B082
:1007F00001F002FAFFF7ACFFFFF718FFFFF76EFFFB
:10080000FFF78CFF114801F0A1FC642001F020FAF1
:1008100000F06CF805A800F097F80598FFF774FE53
:1008200004460D460798FFF76FFECDE902010698D2
:10083000FFF76AFECDE9000122462B46044801F08D
:100840001BFC642001F004FAE4E700BFEC30000870
:10085000F430000870B582B00D46164660F07F0097
:100860008DF80700002240210D4801F02FF90A23DE
:1008700001220DF107010B4800F08BFA044638B154
:1008800001224021064801F021F9204602B070BD46
:100890000A2332462946034800F059FC0446EFE794
:1008A00000040240CC00002030B583B000F07F008F
:1008B0008DF804008DF805100A4C002240212046D6
:1008C00001F004F90A23012201A9074800F061FAA6
:1008D000054601224021204601F0F8F8284603B0E1
:1008E00030BD00BF00040240CC00002000B583B042
:1008F00001224021134801F0E9F8142001F0A8F981
:1009000020216020FFF7D0FF052001F0A1F934215C
:100910006220FFF7C9FF00238DF8073001220DF197
:1009200007014F20FFF796FF18B99DF80730402BBD
:1009300003D04FF0FF3003B000BD8C216020FFF7E3
:10094000B3FFF8E70004024010B582B00446062267
:1009500069466820FFF77EFF00BB024619E05100A0
:1009600002AB03EB420313F8083C0931694411F868
:10097000081C43EA01231BB207EE903A04EB820302
:10098000F8EEE77AB7EE087A67EE877AC3ED007A79
:100990000132022AE3DD002002B010BD4FF0FF302B
:1009A000FAE7FEE7FEE7FEE7FEE7FEE7704770477F
:1009B000704708B501F03AF908BD000000B583B0F2
:1009C000002100910C4B5A6C42F480425A645A6CDC
:1009D00002F480420092009A01911A6C42F0805217
:1009E0001A641B6C03F080530193019B072001F0F4
:1009F000A9F803B000BD00BF00380240F0B589B0CF
:100A000000230393049305930693079302681F4BF7
:100A10009A4201D009B0F0BD0024009403F50033E0
:100A20001A6C42F480421A641A6C02F480420092FA
:100A3000009A01941A6B42F004021A631A6B02F0D6
:100A400004020192019A02941A6B42F002021A63A4
:100A50001B6B03F002030293029B0C2303930225FA
:100A6000049503260696052707970DEB0301084812
:100A700000F03CFF4FF480630393049505940696C1
:100A8000079703A9034800F031FFC3E7003800408F
:100A9000000802400004024000B589B0002303931F
:100AA00004930593069307930268144B9A4201D06E
:100AB00009B000BD0021019103F5FA331A6C42F42C
:100AC00000321A641A6C02F400320192019A029107
:100AD0001A6B42F001021A631B6B03F001030293CD
:100AE000029B0C23039302230493032306930723FF
:100AF000079303A9024800F0F9FED9E7004400403B
:100B0000000002402DE9F04383B004460F4616462C
:100B10001D4601F097F80A9B1B1A03EB050801F02C
:100B200091F88146284B1B68C3F3CB3308FB03F3D2
:100B3000019323689B6837EA03030CBF012300235A
:100B4000B3423DD0B5F1FF3FF3D001F07BF84B4607
:100B5000C01A404503D2019B73BB9846E9E722685F
:100B6000536823F0E00353606368B3F5827F0BD0D2
:100B7000A36AB3F5005F14D0012384F85130002339
:100B800084F8503003201CE0A368B3F5004F02D076
:100B9000B3F5806FECD12268136823F04003136033
:100BA000E6E72268136823F4005313602268136891
:100BB00043F400531360DFE7019B013B0193B8E767
:100BC000002003B0BDE8F0830800002070B584B0B9
:100BD00004460B460D461646009201220221FFF7FD
:100BE00091FFD0B9174B1B68174AA2FB03235B0D7B
:100BF0004FF47A7202FB03F303936368B3F5827FC9
:100C000011D0039B3BB1039B013B039323689B687B
:100C100013F0800FF5D104B070BD636D43F0200375
:100C200063650320F7E700962B46002280212046CB
:100C3000FFF768FF0028EED0636D43F02003636583
:100C4000EFE700BF08000020819F5E1610B582B05C
:100C500004460B464168B1F5827F13D06168B1F557
:100C6000827F28D1A168B1F5806F18D00092002250
:100C700080212046FFF746FF20B3636D43F0200339
:100C8000636525E08168B1F5004F02D0B1F5806F52
:100C9000E4D12068016821F040010160DEE70092A4
:100CA000002201212046FFF72DFF58B1636D43F06C
:100CB000200363650CE00092002201212046FFF72B
:100CC00021FF08B902B010BD636D43F020036365D6
:100CD0000320F7E700285AD010B50446436A33B919
:100CE0004368B3F5827F05D00023C36102E000238F
:100CF000036143610023A36294F85130002B40D07C
:100D0000022384F851302268136823F040031360F3
:100D1000636803F48273A26802F404421343E26836
:100D200002F400621343226902F002021343626973
:100D300002F001021343A26902F400721343E26954
:100D400002F038021343226A02F080021343A26ABF
:100D500002F40052216813430B60638B03F0040319
:100D6000626A02F01002216813434B602268D36963
:100D700023F40063D36100206065012384F85130BF
:100D800010BD84F850302046FFF738FEB8E7012048
:100D900070472DE9F04383B00446894690461D46CE
:100DA00000F050FF94F85170012F3ED1064649469D
:100DB00000293BD04246002A38D094F85030012B0D
:100DC00033D0012384F85030032384F851300023BA
:100DD0006365C4F83090A4F83480A4F83680A36327
:100DE000A387E38763642364A368B3F5004F21D02E
:100DF00023681A6812F0400F03D11A6842F04002CB
:100E00001A60E368B3F5006F1FD0636813B14346FF
:100E1000012B58D1226B236812781A73236B01338C
:100E20002363E38E013BE3864DE00227384603B09F
:100E3000BDE8F0832268136823F040031360226842
:100E4000136843F480431360D2E7636813B14346E9
:100E5000012B13D1226B23681288DA60236B0233D3
:100E60002363E38E013BE38608E000F0EBFE801B8A
:100E7000A84202D3B5F1FF3F12D18DB1E38E002B12
:100E80003AD023689A6812F0020FEED0226B1288D3
:100E9000DA60236B02332363E38E013BE386EDE7E5
:100EA000012384F85130002384F8503022E0226B73
:100EB00012781A73216B01312163B4F836C00CF13A
:100EC000FF3CA4F836C0E38EB3B123689A6812F0F1
:100ED000020FECD100F0B6FE801BA84202D3B5F1A0
:100EE000FF3F01D1002DEED1012384F851300023C2
:100EF00084F85030032799E7324629462046FFF709
:100F000065FE08B120236365A36833B901932368A4
:100F1000DA6801929B680193019B012384F85130A8
:100F2000002384F85030636D002B7FF47FAF1F46A1
:100F30007CE72DE9F04383B004460F46914698467E
:100F40000A9D00F07FFE064694F851306268012B3E
:100F500007D0B2F5827F4BD1A268002A48D1042B7A
:100F600046D1002F00F0F1804B46002B00F0ED80C1
:100F70004346002B00F0E98094F85030012B37D025
:100F8000012384F8503094F85130042B02D005230B
:100F900084F8513000236365C4F83890A4F83E808B
:100FA000A4F83C802763A4F83680A4F83480236436
:100FB000636423681A6812F0400F03D11A6842F084
:100FC00040021A60E368B3F5006F15D0636813B18F
:100FD0004346012B09D1226B236812781A73236BC5
:100FE00001332363E38E013BE38601231F466AE05E
:100FF000022003B0BDE8F083636813B14346012BC0
:1010000009D1226B23681288DA60236B02332363D1
:10101000E38E013BE38601231F4618E022689368B4
:1010200013F001030BD0E18F49B1D168A26B11809D
:10103000A26B0232A263E28F013AE2871F4600F000
:1010400001FE801BA84202D3B5F1FF3F1AD1E38E07
:1010500013B9E38F002B58D023689A6812F0020F5F
:10106000DCD0E28E002AD9D0002FD7D0226B128894
:10107000DA60236B02332363E38E013BE3860023B4
:101080001F46CBE7012384F85130002384F8503009
:1010900039E02268936813F001030BD0E18F49B166
:1010A000D168A26B1170A26B0132A263E28F013A88
:1010B000E2871F4600F0C6FD831BAB4202D3B5F1A9
:1010C000FF3F1AD1CDB1E38E0BB9E38FEBB12368AB
:1010D0009A6812F0020FDCD0E28E002AD9D0002FDD
:1010E000D7D0226B12781A73236B01332363E38EFC
:1010F000013BE38600231F46CBE7012384F85130F0
:10110000002384F85030032073E7324629462046F6
:10111000FFF75CFDA0B9A36833B901932368DA68CF
:1011200001929B680193019B012384F851300023B5
:1011300084F85030636D002B3FF45BAF012058E71B
:1011400020236365002384F85030012051E72DE906
:10115000F04383B090F85160012E35D104468846A3
:1011600091461D4689B382B34368B3F5827F01D1AE
:10117000836873B300F066FD074694F85030012B86
:1011800022D0012384F85030042384F85130002306
:101190006365C4F83880A4F83C90A4F83E902363BB
:1011A000A386E38623646364A368B3F5004F1AD073
:1011B00023681A6812F0400F03D11A6842F0400207
:1011C0001A60E3681BB345E00226304603B0BDE871
:1011D000F083042380F85130009513460A46FFF748
:1011E000A8FE0646F1E72268136823F04003136067
:1011F0002268136823F480431360D9E700F022FDCE
:10120000C01BA84202D3B5F1FF3F12D18DB1E38FCD
:10121000002B37D023689A6812F0010FEED0A26B32
:101220001B7B1370A36B0133A363E38F013BE38745
:10123000EDE7012384F85130002384F85030032671
:10124000C3E700F0FFFCC01BA84202D3B5F1FF3F8B
:1012500011D185B1E38FABB123689A6812F0010F09
:10126000EFD0DA68A36B1A80A36B0233A363E38F1A
:10127000013BE387EEE7012384F85130002384F833
:101280005030DCE73A4629462046FFF7DFFC08B13C
:1012900020236365012384F85130002384F8503003
:1012A000636D002B91D11E468FE70000002800F0EF
:1012B000DC8170B582B00446036813F0010F3BD0A7
:1012C000984B9B6803F00C03042B2DD0954B9B6827
:1012D00003F00C03082B22D06368B3F5803F4ED097
:1012E000B3F5A02F51D08F4B1A6822F480321A60C8
:1012F0001A6822F480221A606368002B4FD000F035
:10130000A1FC0546874B1B6813F4003F14D100F085
:1013100099FC401B6428F5D97BE001207AE0814BE1
:101320005B6813F4800FD7D07E4B1B6813F4003F2B
:1013300002D06368002BF0D0236813F0020F51D065
:10134000784B9B6813F00C0F3CD0764B9B6803F0F6
:101350000C03082B31D0E368002B66D0724B0122BE
:101360001A6000F06FFC05466E4B1B6813F0020F0D
:1013700052D100F067FC401B0228F5D949E0694AC8
:10138000136843F480331360B6E7664B1A6842F47F
:1013900080221A601A6842F480321A60ACE700F0CA
:1013A00051FC05465F4B1B6813F4003FC4D000F0AE
:1013B00049FC401B6428F5D92BE05A4B5B6813F4B9
:1013C000800FC8D1574B1B6813F0020F02D0E3689F
:1013D000012BA2D1534A136823F0F803216943EA91
:1013E000C1031360236813F0080F41D063696BB326
:1013F0004D4B0122C3F8802E00F024FC0546494BDA
:101400005B6F13F0020F33D100F01CFC401B02286D
:10141000F5D9032002B070BD424A136823F0F803E7
:10142000216943EAC1031360DCE73F4B00221A60E5
:1014300000F008FC05463B4B1B6813F0020FD1D0AF
:1014400000F000FC401B0228F5D9E2E7364B0022F1
:10145000C3F8802E00F0F6FB0546324B5B6F13F0AD
:10146000020F05D000F0EEFB401B0228F5D9D0E7B3
:10147000236813F0040F76D02A4B1B6C13F0805FA7
:1014800033D100230193274B1A6C42F080521A6427
:101490001B6C03F080530193019B01231E46234BD9
:1014A0001B6813F4807F23D0A368012B33D0052B56
:1014B0003ED01C4B1A6F22F001021A671A6F22F0FD
:1014C00004021A67A368002B3CD000F0BBFB054662
:1014D000144B1B6F13F0020F44D100F0B3FB401B01
:1014E00041F288339842F3D993E700231E46D6E7AA
:1014F0000E4A136843F48073136000F0A3FB0546A3
:101500000A4B1B6813F4807FCED100F09BFB401B7D
:101510000228F5D97DE7034A136F43F001031367EF
:10152000D0E700BF00380240000047420070004092
:101530004F4B1A6F42F004021A671A6F42F0010211
:101540001A67BFE700F07EFB0546494B1B6F13F09F
:10155000020F07D000F076FB401B41F2883398421F
:10156000F3D956E7DEB9A369002B50D0404A926800
:1015700002F00C02082A4CD0022B16D03D4B002260
:101580001A6600F05FFB0446394B1B6813F0007FBE
:101590003DD000F057FB001B0228F5D939E7344A4B
:1015A000136C23F080531364DDE7324B00221A667C
:1015B00000F048FB05462E4B1B6813F0007F05D05A
:1015C00000F040FB401B0228F5D922E7E369226ABC
:1015D0001343626A43EA8213A26A5208013A43EA59
:1015E0000243E26A43EA0263214A5360214B01222B
:1015F0001A6600F027FB04461D4B1B6813F0007FA2
:1016000005D100F01FFB001B0228F5D901E70020DF
:1016100000E7012B3FF481AE154B5B6803F48001BA
:10162000E26991427FF479AE03F03F02216A8A4277
:101630007FF473AE616A47F6C0721A40B2EB811F45
:101640007FF46BAE03F44031A26A5208013AB1EB69
:10165000024F7FF462AE03F07063E26AB3EB026F95
:1016600001D10020D6E60120D4E60120704700BF5A
:10167000003802400000474208B5334B9B6803F036
:101680000C03042B5BD0082B5BD12F4B5A6802F064
:101690003F025B6813F4800F2CD02B4B5868C0F3CB
:1016A00088104FEA401CBCEB000C6EEB0E0E4FEAAC
:1016B0008E1343EA9C634FEA8C11B1EB0C0163EB90
:1016C0000E03DB0043EA5173C90011EB000C43F138
:1016D0000003590200234FEA4C2041EADC51FEF797
:1016E0006BFF194B5B68C3F3014301335B00B0FB35
:1016F000F3F008BD144B5868C0F388104FEA401C43
:10170000BCEB000C6EEB0E0E4FEA8E1343EA9C63AB
:101710004FEA8C11B1EB0C0163EB0E03DB0043EAE3
:101720005173C90011EB000C43F10003990200232F
:101730004FEA8C2041EA9C51FEF73EFFD1E7034877
:10174000D7E70348D5E700BF0038024000127A000F
:101750000024F400002800F0978070B50D46044680
:101760004A4B1B6803F007038B4206D2474B1970A4
:101770001B6803F007038B4249D1236813F0020F63
:1017800017D013F0040F04D0414A936843F4E05398
:101790009360236813F0080F04D03D4A936843F424
:1017A000604393603A4A936823F0F003A1680B43C7
:1017B0009360236813F0010F31D06368012B21D0AF
:1017C0009A1E012A25D9324A126812F0020F1ED041
:1017D0002F498A6822F0030213438B6000F032FA2B
:1017E00006462B4B9B6803F00C036268B3EB820F39
:1017F00015D000F027FA801B41F288339842F0D9C7
:10180000032005E0224A126812F4003FE0D10120D3
:1018100070BD1F4A126812F0007FD9D1F7E71B4B49
:101820001B6803F00703AB4206D9184B1D701B68F9
:1018300003F00703AB42EAD1236813F0040F06D08C
:10184000134A936823F4E053E1680B4393602368E1
:1018500013F0080F07D00E4A936823F46043216900
:1018600043EAC1039360FFF707FF094B9B68C3F38B
:101870000313084AD35CD840074B1860074B18681D
:1018800000F096F90020C3E701207047003C0240B9
:101890000038024008310008080000200400002041
:1018A000014B1868704700BF0800002008B5FFF71B
:1018B000F7FF044B9B68C3F38223034AD35CD840F1
:1018C00008BD00BF003802400031000808B5FFF72E
:1018D000E7FF044B9B68C3F34233034AD35CD84011
:1018E00008BD00BF003802400031000870B582B06A
:1018F0008E46002369E085684FEA430C032101FA14
:101900000CF125EA0105DEF80C1001FA0CF129436F
:101910008160416821EA0201DEF80420C2F300126E
:101920009A400A43426064E0D908083150F8212007
:1019300003F00705AD004FF00F0C0CFA05FC22EA8E
:101940000C0CDEF81020AA4042EA0C0240F82120DC
:1019500066E0042200E0002202FA0CF22A4302317F
:10196000564D45F82120564A9168E24321EA040584
:10197000DEF8046016F4801F01D044EA01055049E6
:101980008D60C96802EA0105DEF8046016F4001FE4
:1019900001D044EA01054A49CD60496802EA0105DF
:1019A000DEF8046016F4003F01D044EA0105444922
:1019B0004D6009680A40DEF8045015F4803F01D0FC
:1019C00044EA01023E490A6001330F2B74D8012218
:1019D0009A40DEF8001001EA020432EA0101F3D174
:1019E000DEF8041001F0030C0CF1FF3CBCF1010F18
:1019F00081D9DEF8042002F00302032A0AD0C1686C
:101A00005D000322AA4021EA0201DEF80820AA4074
:101A10000A43C260DEF8042002F00302022A83D0E7
:101A200001684FEA430C032202FA0CF221EA020198
:101A3000DEF8042002F0030202FA0CF20A4302600C
:101A4000DEF8042012F4403FBED0002201921D4A6D
:101A5000516C41F480415164526C02F48042019215
:101A6000019A99088D1C154A52F8255003F0030C71
:101A70004FEA8C0C0F2202FA0CF225EA0205124AF8
:101A800090423FF468AF02F5806290420ED002F5BA
:101A9000806290420CD002F5806290420AD002F53A
:101AA000806290423FF455AF072255E7012253E789
:101AB000022251E703224FE702B070BD0038014017
:101AC000003C014000380240000002400AB1816140
:101AD0007047090481617047002807DB090100F1A4
:101AE000604000F5614080F80013704700F00F007F
:101AF0000901014B1954704714ED00E000B500F0E6
:101B00000700A0F1030CBCF1040F07D8C0F1070EC9
:101B10000430062806D84FF0000C03E04FF0040E06
:101B20004FF0000C4FF0FF3303FA0EF021EA0001F2
:101B300001FA0CF103FA0CF322EA030241EA020073
:101B400000BD0000074AD36823F4E0631B041B0CAC
:101B5000000200F4E060034343F0BF6343F400334A
:101B6000D360704700ED00E010B50446054BD8681F
:101B7000C0F30220FFF7C2FF01462046FFF7ACFF8B
:101B800010BD00BF00ED00E00138B0F1807F0BD246
:101B90004FF0E0235861054AF02182F8231000201D
:101BA000986107221A6170470120704700ED00E03C
:101BB00010B504460D4B18680D4B1A784FF47A7324
:101BC000B3FBF2F3B0FBF3F0FFF7DEFF08B90F2C25
:101BD00001D9012010BD024621464FF0FF30FFF72A
:101BE000C3FF044B1C600020F4E700BF0800002086
:101BF000000000200400002008B50B4B1A6842F4D6
:101C000000721A601A6842F480621A601A6842F41C
:101C100080721A600320FFF795FF0020FFF7C8FFCE
:101C2000FEF7CCFE002008BD003C0240034A1168CC
:101C3000034B1B780B441360704700BF2401002046
:101C400000000020014B1868704700BF24010020ED
:101C500038B50446FFF7F6FF0546B4F1FF3F02D062
:101C6000044B1B781C44FFF7EDFF401BA042FAD346
:101C700038BD00BF0000002010B50446026813699B
:101C800023F44053C1680B431361836802691A430C
:101C900043691A43C3691A430168CB6823F41643A6
:101CA00023F00C031343CB600268536923F44073A1
:101CB00081690B4353610368314A934206D002F5B0
:101CC0008062934202D0FFF7F1FD01E0FFF7FEFDD5
:101CD000E369B3F5004F29D00021031849411B18CF
:101CE00041F10001C90041EA5371DB001818636833
:101CF0004FEA83024FEA937341F10001FEF75CFC67
:101D0000204AA2FB00314909642303FB11031B0194
:101D10003233A2FB03235B0903F0F00202EB011252
:101D200003F00F03216813448B6010BD00230218D9
:101D300043EB0301121841F10001C90041EA52715D
:101D4000D200101841F10001626892185B41FEF761
:101D500033FC0C4AA2FB00314909642303FB110345
:101D6000DB003233A2FB03235B095A0002F4F87252
:101D700002EB011203F00703216813448B60D4E7E0
:101D8000001001401F85EB5160B310B5044690F878
:101D9000413013B3242384F841302268D36823F4FC
:101DA0000053D3602046FFF767FF2268136923F4CE
:101DB000904313612268536923F02A035361226818
:101DC000D36843F40053D36000206064202384F878
:101DD000413084F84230606310BD80F84030FEF737
:101DE0005BFED7E701207047034AD2F8883043F4FE
:101DF0007003C2F88830704700ED00E008B5034674
:101E00000D4A0E490E48006840B10D480068034471
:101E1000521A934208D80A4A136008BD0848DFF8EE
:101E200024C0C0F800C0F0E700F0BEFA0C23036045
:101E30004FF0FF30F1E700BF000002200004000077
:101E4000280100207802002070B50E4615460024B7
:101E500006E0AFF30080314601F8010B01340E4675
:101E6000AC42F6DB284670BD70B50C461646002520
:101E700004E014F8010BAFF300800135B542F8DB44
:101E8000304670BD4FF0FF3070474FF400534B6049
:101E9000002070470120704700207047DFF834D0E1
:101EA000FFF7A2FF0C480D490D4A002302E0D45869
:101EB000C4500433C4188C42F9D30A4A0A4C002394
:101EC00001E013600432A242FBD300F073FAFEF784
:101ED0008DFC7047000002200000002068000020F8
:101EE0005C3100086800002078020020FEE7000056
:101EF000002310B50446C0E90033C0E90433836011
:101F000081814366C2818361194608225C3000F0FA
:101F1000FDF90D4B63620D4BA3620D4BE3620D4B5C
:101F200023630D4B24629C4206D003F16802944265
:101F300002D0D0339C4205D104F15800BDE81040D6
:101F400000F05CBA10BD00BF5D2100087F210008D1
:101F5000B7210008DD2100082C010020024A0349B6
:101F6000034800F06BB800BF0C000020A92C00084B
:101F70001C00002041680C4B994210B5044601D06A
:101F800000F092FEA168094B994202D0204600F071
:101F90008BFEE168064B994204D02046BDE8104014
:101FA00000F082BE10BD00BF2C0100209401002073
:101FB000FC01002010B50A4B0A4A1A600A480022A8
:101FC0000421FFF795FF094801220921FFF790FF3F
:101FD000BDE81040064802221221FFF789BF00BF6A
:101FE000640200205D1F00082C01002094010020E5
:101FF000FC010020014800F002BA00BF6D02002081
:10200000014800F0FDB900BF6D02002010B5044684
:10201000FFF7F0FF236A1BB1BDE81040FFF7F0BFE8
:10202000044B2362044B1B68002BF5D1FFF7C2FF62
:10203000F2E700BF751F0008640200202DE9F84395
:102040008046894614460026D4E90175013F05D52E
:102050002468002CF8D13046BDE8F883AB89012B09
:1020600007D9B5F90E30013303D029464046C84799
:1020700006436835EAE700000FB407B5064904AB2C
:10208000086853F8042B8168019300F0DBFA03B071
:102090005DF804EB04B0704718000020F8B5036A3F
:1020A000846806460F460BB9FFF7B0FF636ED90789
:1020B00005D4A3899A0502D4A06D00F0A0F9A389E4
:1020C0001B0702D52369002B38D12146304600F08A
:1020D000C9F8002832D04FF0FF3524E0002B04DA95
:1020E000A269934218DB0A2916D023685A1C226081
:1020F0001970A36817F8011F013BA3600029EDD1F7
:102100008B421DDA0A212246304600F06BF8411C52
:102110000CBF05460A2506E02246304600F062F86C
:102120000546681CE5D1636EDA0705D4A3899B05D3
:1021300002D4A06D00F064F92846F8BD013FD8E74D
:1021400023680A255A1C22601D70ECE7024B0146E9
:102150001868FFF7A3BF00BF1800002010B50C4699
:10216000B1F90E1000F0FCF80028ABBF636DA38935
:102170001B1823F48053ACBF6365A38110BD2DE908
:10218000F0411F468B89DB0505460C46164605D5F2
:10219000B1F90E100223002200F0D0F8A389B4F99F
:1021A0000E1023F48053A38132463B462846BDE8F7
:1021B000F04100F0E7B810B50C46B1F90E1000F090
:1021C000BDF8B4F90C30421C0BBF23F4805343F428
:1021D0008053A381A38118BF606510BDB1F90E10B3
:1021E00000F09CB8F8B506460F46144618B1036ACD
:1021F0000BB9FFF70BFFA369A360A3891A0726D5C4
:10220000236923B323692068C01A6369834204DC0D
:102210002146304600F048FDF8B9A368013BA360B1
:1022200023685A1C22601F70636901308342FDB22B
:1022300004D0A389DB0712D50A2D10D121463046E0
:1022400000F032FD002818BF4FF0FF3507E02146AF
:10225000304600F007F80028D4D04FF0FF3528466C
:10226000F8BD000038B5284B054618680C4618B173
:10227000036A0BB9FFF7CAFEB4F90C30190720D472
:10228000DA0607D409222A6043F04003A3814FF005
:10229000FF3038BD580711D5616B41B104F14403DB
:1022A000994202D0284600F0ADF800236363002273
:1022B000A38962602269226023F0240343F00803AB
:1022C000A38123694BB9A38903F42073B3F5007F7D
:1022D00003D02146284600F035FDB4F90C3013F048
:1022E000010208D00022A26062695242A261226902
:1022F00032B10020CDE7990758BF6269A260F6E7C6
:102300001A06F6D5C0E700BF1800002002440346B5
:10231000934200D1704703F8011BF9E738B5064C2A
:102320000023054608462360FFF7ACFD431C02D19D
:10233000236803B12B6038BD6802002038B5074C14
:10234000054608461146002222601A46FFF7A4FD02
:10235000431C02D1236803B12B6038BD6802002002
:1023600038B5074C054608461146002222601A4639
:10237000FFF76AFD431C02D1236803B12B6038BD0F
:102380006802002038B5074C054608461146002271
:1023900022601A46FFF768FD431C02D1236803B18F
:1023A0002B6038BD68020020014B1868704700BFE1
:1023B0001800002070B50D4B0D4C00261D1BB6EB10
:1023C000A50F09D100F086FE0A4C0B4B00261D1B01
:1023D000B6EBA50F05D170BD54F8043B9847013604
:1023E000EDE754F8043B98470136F1E75431000813
:1023F00054310008543100085831000870477047C4
:102400007047000037B5002944D051F8043C0190D2
:10241000002BA1F10404B8BFE41800F0E1F81E4A53
:102420000198136833B96360146003B0BDE83040AD
:1024300000F0DCB8A34208D9256861198B4201BFBE
:1024400019685B6849192160EDE71A465B680BB1B2
:10245000A342FAD911685518A5420BD1246821442A
:102460005418A3421160E0D11C685B6853600C44AF
:102470001460DAE702D90C230360D6E725686119F6
:102480008B4204BF19685B68636004BF491921600F
:102490005460CAE703B030BD7402002070B50F4C21
:1024A0000E462168054611B900F0A8FC20603146AF
:1024B000284600F0A3FC431C0ED0C41C24F00304E7
:1024C000A04207D0211A284600F098FC013008BF2E
:1024D0004FF0FF34204670BD0446FBE77002002039
:1024E0002DE9F843CD1C25F0030508350C2D38BF28
:1024F0000C25002D064601DBA94205D90C233360CB
:1025000000273846BDE8F883DFF8D08000F068F88F
:10251000D8F800301C4644BB29463046FFF7BEFFC2
:10252000431C044658D1D8F800402746002F43D119
:10253000002C4BD023683946304604EB030900F0E9
:102540005DFC814542D121686D1A29463046FFF76E
:10255000A5FF01303AD023682B442360D8F800301F
:102560005A6862BBC8F800700FE02268521B20D482
:102570000B2A17D96119A342256018BF59606368F7
:1025800008BFC8F8001062514B60304604F10B07D9
:1025900000F02CF827F00707231DFA1A1CBFDB1BDD
:1025A000A350AEE76268A3420CBFC8F800205A608F
:1025B000EBE723466468AEE73C467F68B6E71A4619
:1025C0005B68A342FBD100235360DEE70C2333603A
:1025D000304600F00BF894E70560D6E7740200205F
:1025E0000148FFF70CBF00BF6C0200200148FFF755
:1025F00007BF00BF6C0200209368013B10B49360DA
:1026000007D59469A34201DB0A2902D110BCFFF768
:10261000E9BD1368581C10601970084610BC70475B
:10262000F8B506460F461446D518AC4201D1002035
:1026300007E014F8011B3A463046FFF7DDFF431C64
:10264000F3D1F8BD2DE9F04706469CB00D4614467F
:102650001F4618B1036A0BB9FFF7D8FC6B6ED90798
:1026600005D4AB899A0502D4A86DFFF7C8FEAB89E3
:102670001B0701D52B699BB929463046FFF7F2FDB0
:1026800070B16B6EDE0702D4AB899C0504D54FF0A8
:10269000FF301CB0BDE8F087A86DFFF7B1FEF6E78C
:1026A0000023099320238DF82930039730236B4FA3
:1026B0008DF82A304FF0010823461A7899461AB14E
:1026C000252A03F10103F8D1B9EB040A0BD05346D4
:1026D000224629463046FFF7A3FF013000F0A580CF
:1026E000099A5244099299F80030002B00F09D801D
:1026F00000224FF0FF33CDE9053209F101090492C0
:1027000007928DF853201A924C46052214F8011BAB
:102710005248FDF745FD049AD0B9D00644BF2023A6
:102720008DF85330110744BF2B238DF8533099F89F
:1027300000302A2B13D007994B4600204FF00A0C8B
:102740001A78303A092A1C464DD9A8B1079113E0EE
:10275000C01B08FA00F010430490A146D4E7039B85
:10276000191D1B680391002BBBBF5B4242F00202A4
:1027700007930793B8BF049223782E2B0DD163786B
:102780002A2B35D1039B1A1D1B680392002B04F1E1
:102790000204B8BF4FF0FF330593DFF8D0902178E3
:1027A00003224846FDF7FCFC38B1049BA0EB09006E
:1027B00040228240134301340493217828488DF845
:1027C00028100622FDF7ECFC00283DD0254810BB60
:1027D000039B073323F0070308330393099B034448
:1027E0000134099368E701330CFB01210120A7E7BD
:1027F0000022601C13464FF00A0C01783039092979
:10280000044603D9002A08BF1346C5E701300CFB74
:1028100003130122F1E703AB00932A46124B04A9EC
:102820003046AFF30080431CD8D16B6ED90705D476
:10283000AB899A0502D4A86DFFF7E2FDAB895B0670
:102840003FF525AF099824E703AB00932A46064BD2
:1028500004A9304600F076F8E5E700BF183100081B
:102860002231000800000000212600081E31000867
:102870002DE9F047164699468A680B69089F9342EE
:10288000B8BF1346336091F8432080460C460AB126
:102890000133336023689D0642BF336802333360DF
:1028A000256815F0060506D104F1190AE3683268B7
:1028B0009B1AAB4228DC94F843302268003B18BFD7
:1028C0000123900629D404F1430249464046B84703
:1028D000421C17D02368A168226903F00603042B69
:1028E00001BFE5683368ED1A25EAE57518BF0025D4
:1028F0008B1A2B449142C8BF1D4600261A34B5429C
:1029000017D10020BDE8F0874946012352464046D2
:10291000B847411CF6D00135C8E7E1185A1C3020F1
:1029200081F84300224494F8451082F843100233A2
:10293000C9E70123224649464046B847431CE1D037
:102940000136DCE72DE9F04316460A7E85B0782A89
:102950001F4605460C9B0C4609D8622A01F1430C20
:102960000AD8002A00F0EA80582A00F0B88004F162
:10297000420884F842203BE0A2F163011529F6D811
:1029800001A050F821F000BFE1290008F529000856
:102990006F2900086F2900086F2900086F290008B7
:1029A000F52900086F2900086F2900086F29000821
:1029B0006F2900081D2B00081F2A0008D12A0008D3
:1029C0006F2900086F290008452B00086F290008AF
:1029D0001F2A00086F2900086F290008DB2A000859
:1029E0001A68111D1960136884F8423004F1420816
:1029F0000123B6E01A682068111D1960030601D58D
:102A0000136803E04106FBD5B2F90030002B03DA6E
:102A10002D225B4284F843205E490A2212E01A68A4
:102A20002068111D1960030601D5136802E04106F4
:102A3000FBD51388227E57496F2A6DD108220020CA
:102A400084F84300D4F804E0C4F808E0BEF1000FB5
:102A5000E04606DB206853EA0E0E20F004002060FA
:102A60000AD0B3FBF2F002FB103E9A4211F80EE0DE
:102A700008F801ED0346F4D9082A0BD12368DA07D8
:102A800008D5236962689A42DEBF302308F8013C0A
:102A900008F1FF38ACEB080323613346009703AA23
:102AA00021462846FFF7E4FE431C0ED03146236939
:102AB00042462846B847411C07D023689A0765D488
:102AC000E068039B9842B8BF184605B0BDE8F083A4
:102AD000226842F02002226078222F4900E02D492E
:102AE00084F845201868226800F1040EC3F800E05D
:102AF000130601D5036802E05306FBD50388D0070F
:102B000044BF42F0200222600BB1102297E72268F6
:102B100022F020022260F8E70A2290E71A68D4F82F
:102B200000E06169101D18601EF0800F136801D06D
:102B3000196003E01EF0400FFAD0198000232361D2
:102B4000E046AAE71A68111D1960D2F80080626891
:102B500000214046FDF724FB10B1A0EB08006060A7
:102B600063682361002384F8433096E7012304F16E
:102B7000190231462846B847431CA6D008F101087F
:102B8000E368039A9B1A4345F0DC99E74FF000088D
:102B9000F6E700BF293100083A310008B1F90C20EE
:102BA0002DE9F041170705460C4658D44B68002B19
:102BB00002DC0B6C002B01DDE66A16B90020BDE8D3
:102BC000F081002312F480522F682B6033D0606DA7
:102BD000A389590705D56368C01A636B0BB1236CD1
:102BE000C01A02460023E66A216A2846B047421C02
:102BF000B4F90C3006D129681D292CD8294ACA40BD
:102C0000D60728D500226260D9042269226004D543
:102C1000421C01D12B6803B96065616B2F600029EC
:102C2000CCD004F14403994202D02846FFF7EAFBD6
:102C300000236363C2E7216A01232846B047461C8C
:102C4000C6D12B68002BC3D01D2B01D0162B01D170
:102C50002F60B3E7A38943F04003A381AFE70F6977
:102C6000002FABD093070E6808BF4B690F6018BFE9
:102C70000023A6EB07088B60B8F1000F9EDD216AE8
:102C8000A66A43463A462846B047002806DCA38990
:102C900043F04003A3814FF0FF3090E70744A8EBD7
:102CA0000008E9E70100402038B50B6905460C46ED
:102CB00013B91D46284638BD18B1036A0BB9FFF792
:102CC000A5F9B4F90C30002BF3D0626ED00704D410
:102CD000990502D4A06DFFF792FB28462146FFF725
:102CE0005DFF636EDA070546E4D4A3899B05E1D452
:102CF000A06DFFF785FBDDE770B50C46B1F90E104E
:102D0000002996B015461E4604DB6A4600F054F8CA
:102D100000280DDAA38913F0800F4FF000020CBFDA
:102D20004FF48061402100203260296016B070BDF0
:102D3000019A02F47042A2F500535A425A414FF4EC
:102D40008061F0E78B8973B59E0705460C4607D571
:102D500004F14703236023610123636102B070BD66
:102D600001AB6A46FFF7C8FF009E28463146FFF7D1
:102D7000B7FBB4F90C3038B99A05EFD423F003034C
:102D800043F00203A381E3E743F08003A381019BA7
:102D90002060C4E90406002BE0D0B4F90E102846E8
:102DA00000F01CF80028D9D0A38923F0030343F0D6
:102DB0000103A381D2E7000038B5074C0023054684
:102DC000084611462360FFF760F8431C02D12368D0
:102DD00003B12B6038BD00BF6802002038B5064C37
:102DE0000023054608462360FFF754F8431C02D130
:102DF000236803B12B6038BD6802002038B5064C4B
:102E00000023054608462360FEF7F8FF431C02D165
:102E1000236803B12B6038BD680200202DE9F0471C
:102E2000089F154604468E461E46002B40F0D28071
:102E30008A424DD9B2FA82FCBCF1000F02FA0CF3BF
:102E4000CCF1200E18BF1D4620FA0EFE01FA0CF33D
:102E50004EEA030E00FA0CF30CBF8E461C464FEAF6
:102E60001548A8B2BEFBF8F1220C08FB11EE01FBDD
:102E700000F342EA0E42934206D9AA1801F1FF3E3E
:102E800001D293421ED87146D21AA4B2B2FBF8F313
:102E900008FB1322584344EA0244A04206D92C19E5
:102EA00003F1FF3201D2A0420FD81346241A43EA9D
:102EB000014027B124FA0CF400233C607B603146CA
:102EC000BDE8F08702392A44DEE7023B2C44EDE7F7
:102ED000002A71D0B2FA82F3DBB31E46C6F120039A
:102EE00002FA06F521FA03F2B14020FA03F30B438C
:102EF0004FEA154E00FA06F41FFA85FCB2FBFEF00D
:102F00000EFB10211A0C00FB0CF842EA014290451E
:102F100006D9AA1800F1FF3101D290454ED80846D3
:102F2000A2EB08029BB2B2FBFEF10EFB112201FBE9
:102F30000CFC43EA02439C4506D9EB1801F1FF3231
:102F400001D29C453DD81146A3EB0C0341EA004158
:102F500001E08B1A01214FEA154E1FFA85FCB3FBE5
:102F6000FEF0220C0EFB103300FB0CF842EA034289
:102F7000904506D9AA1800F1FF3301D2904523D815
:102F80001846A2EB0802A4B2B2FBFEF30EFB13221A
:102F900003FB0CFC44EA0244A44506D92C1903F1B6
:102FA000FF3201D2A44512D81346A4EB0C0443EA25
:102FB0000040B4460E467CE71F268FE702382A44BD
:102FC000AEE702392B44BFE702382A44D9E7023B77
:102FD0002C44EAE78B4205D90FB1C7E9000100266E
:102FE00030466CE7B3FA83FCBCF1000F0FD18B4283
:102FF00001D3824209D8841A61EB030301209E4663
:103000000FB1C7E9004E002659E76046F8E7CCF15A
:10301000200E03FA0CF322FA0EF521FA0EF41D43EA
:1030200001FA0CF320FA0EF119434FEA154900FAA0
:103030000CF61FFA85F8B4FBF9F009FB104A0C0CEA
:1030400000FB08F344EA0A44A34202FA0CF206D950
:103050002C1900F1FF3A01D2A34235D85046E41AA8
:1030600089B2B4FBF9F309FB134403FB08F841EA06
:103070000441884506D9691803F1FF3401D2884517
:1030800025D8234643EA0040A1EB0801A0FB0298A3
:1030900041454C46434602D306D14E4504D2B9EBD6
:1030A000020468EB05030138002FACD0321B61EB42
:1030B000030101FA0EFE22FA0CF34EEA030321FA91
:1030C0000CF1C7E900319EE702382C44C7E7023B08
:1030D0002944D7E7F8B500BFF8BC08BC9E46704746
:0C30E000F8B500BFF8BC08BC9E46704765
:1030EC0048656C6C6F0D00002566202566202566F2
:1030FC000D0A0000000000000102030400000000A3
:10310C00000000000102030406070809232D302BE0
:10311C002000686C4C0065666745464700303132CC
:10312C003334353637383941424344454600303123
:10313C003233343536373839616263646566000082
:08314C0054D0FF7F01000000D8
:043154001106000858
:04315800ED05000879
:10315C0001000000100000000024F400000000003A
:10316C00030000002C0100201C00002000000000C7
:10317C002C01002094010020FC0100200000000024
:10318C000000000000000000000000000000000033
:10319C000000000000000000000000000000000023
:1031AC000000000000000000000000000000000013
:0831BC0000000000000000000B
:0400000508001E9D34
:00000001FF
