:020000040800F2
:100000000000022069260008CF0F0008D10F000869
:10001000D30F0008D50F0008D70F0008000000001C
:10002000000000000000000000000000D90F0008E0
:10003000DB0F000800000000DD0F0008DF0F0008E4
:10004000B9260008B9260008B9260008B926000814
:10005000B9260008B9260008B9260008B926000804
:10006000B9260008B9260008B9260008B9260008F4
:10007000B9260008B9260008B9260008B9260008E4
:10008000B9260008B9260008B926000800000000BB
:10009000000000000000000000000000B926000879
:1000A000B9260008B9260008B9260008B9260008B4
:1000B000B9260008B9260008B9260008B9260008A4
:1000C000B9260008B9260008B9260008B926000894
:1000D000B9260008B9260008B9260008000000006B
:1000E000B9260008B9260008B9260008000000005B
:1000F000000000000000000000000000B926000819
:1001000000000000B9260008B9260008B92600083A
:1001100000000000000000000000000000000000DF
:10012000B9260008B9260008B9260008B926000833
:10013000B9260008000000000000000000000000D8
:10014000000000000000000000000000B9260008C8
:10015000B9260008B9260008B9260008B926000803
:10016000B9260008B92600080000000000000000C1
:10017000000000000000000000000000000000007F
:1001800000000000B9260008000000000000000088
:08019000B9260008B926000899
:1001A00001F0FF01102A2BDB10F0070F08D010F828
:1001B000013B013A8B422DD010F0070F42B3F6D12C
:1001C000F0B441EA012141EA014122F007047FF045
:1001D00000070023F0E80256083C85EA010586EA9C
:1001E000010685FA47F5A3FA87F586FA47F6A5FAD8
:1001F00087F68EB9EED1F0BC01F0FF0102F00702E4
:1002000032B110F8013B013A83EA010313B1F8D18E
:100210000020704701387047002D06BF354603386F
:10022000073815F0010F07D1013015F4807F02BFA8
:10023000013015F4C03F0130F0BC0138704700BFF9
:10024000034613F8012B002AFBD1181A0138704716
:1002500081F0004102E000BF83F0004330B54FEA77
:1002600041044FEA430594EA050F08BF90EA020FE4
:100270001FBF54EA000C55EA020C7FEA645C7FEA77
:10028000655C00F0E2804FEA5454D4EB5555B8BF9A
:100290006D420CDD2C4480EA020281EA030382EA0B
:1002A000000083EA010180EA020281EA0303362D9D
:1002B00088BF30BD11F0004F4FEA01314FF4801C70
:1002C0004CEA113102D0404261EB410113F0004F82
:1002D0004FEA03334CEA133302D0524263EB430339
:1002E00094EA050F00F0A780A4F10104D5F1200ED7
:1002F0000DDB02FA0EFC22FA05F2801841F1000132
:1003000003FA0EF2801843FA05F359410EE0A5F105
:1003100020050EF1200E012A03FA0EFC28BF4CF036
:10032000020C43FA05F3C01851EBE37101F00045EC
:1003300007D54FF0000EDCF1000C7EEB00006EEBF9
:100340000101B1F5801F1BD3B1F5001F0CD3490883
:100350005FEA30004FEA3C0C04F101044FEA4452DA
:1003600012F5800F80F09A80BCF1004F08BF5FEA61
:10037000500C50F1000041EB045141EA050130BD41
:100380005FEA4C0C404141EB0101013C28BFB1F553
:10039000801FE9D291F0000F04BF01460020B1FA9E
:1003A00081F308BF2033A3F10B03B3F120020CDA71
:1003B0000C3208DD02F1140CC2F10C0201FA0CF04F
:1003C00021FA02F10CE002F11402D8BFC2F1200CB4
:1003D00001FA02F120FA0CFCDCBF41EA0C0190406A
:1003E000E41AA2BF01EB0451294330BD6FEA0404B3
:1003F0001F3C1CDA0C340EDC04F11404C4F120029E
:1004000020FA04F001FA02F340EA030021FA04F3AF
:1004100045EA030130BDC4F10C04C4F1200220FA06
:1004200002F001FA04F340EA0300294630BD21FA44
:1004300004F0294630BD94F0000F83F4801306BF0A
:1004400081F480110134013D4EE77FEA645C18BFFE
:100450007FEA655C29D094EA050F08BF90EA020F95
:1004600005D054EA000C04BF1946104630BD91EA8D
:10047000030F1EBF0021002030BD5FEA545C05D190
:100480004000494128BF41F0004130BD14F58004CF
:100490003CBF01F5801130BD01F0004545F0FE4143
:1004A00041F470014FF0000030BD7FEA645C1ABF78
:1004B000194610467FEA655C1CBF0B46024650EAAF
:1004C000013406BF52EA033591EA030F41F40021DB
:1004D00030BD00BF90F0000F04BF0021704730B561
:1004E0004FF4806404F132044FF000054FF0000136
:1004F00050E700BF90F0000F04BF0021704730B5F7
:100500004FF4806404F1320410F0004548BF4042CB
:100510004FF000013EE700BF42004FEAE2014FEA20
:1005200031014FEA02701FBF12F07F4393F07F4FFB
:1005300081F06051704732F07F4208BF704793F0FE
:100540007F4F04BF41F40021704730B54FF4607411
:1005500001F0004521F000411CE700BF50EA010214
:1005600008BF704730B54FF000050AE050EA0102BD
:1005700008BF704730B511F0004502D5404261EB2D
:1005800041014FF4806404F132045FEA915C3FF46E
:10059000D8AE4FF003025FEADC0C18BF03325FEA0B
:1005A000DC0C18BF033202EBDC02C2F1200300FABC
:1005B00003FC20FA02F001FA03FE40EA0E0021FAE1
:1005C00002F11444BDE600BF70B54FF0FF0C4CF4CF
:1005D000E06C1CEA11541DBF1CEA135594EA0C0F81
:1005E00095EA0C0F00F0DEF82C4481EA030621EABC
:1005F0004C5123EA4C5350EA013518BF52EA0335F7
:1006000041F4801143F4801338D0A0FB02CE4FF0A8
:100610000005E1FB02E506F00042E0FB03E54FF0D8
:100620000006E1FB03569CF0000F18BF4EF0010ED0
:10063000A4F1FF04B6F5007F64F5407404D25FEACC
:100640004E0E6D4146EB060642EAC62141EA55517F
:100650004FEAC52040EA5E504FEACE2EB4F1FD0CC1
:1006600088BFBCF5E06F1ED8BEF1004F08BF5FEA3F
:10067000500E50F1000041EB045170BD06F00046F1
:1006800046EA010140EA020081EA0301B4EB5C049E
:10069000C2BFD4EB0C0541EA045170BD41F4801196
:1006A0004FF0000E013C00F3AB8014F1360FDEBFBB
:1006B000002001F0004170BDC4F10004203C35DA97
:1006C0000C341BDC04F11404C4F1200500FA05F31A
:1006D00020FA04F001FA05F240EA020001F00042BB
:1006E00021F0004110EBD37021FA04F642EB060131
:1006F0005EEA430E08BF20EAD37070BDC4F10C045B
:10070000C4F1200500FA04F320FA05F001FA04F21E
:1007100040EA020001F0004110EBD37041F100010A
:100720005EEA430E08BF20EAD37070BDC4F1200515
:1007300000FA05F24EEA020E20FA04F301FA05F27D
:1007400043EA020321FA04F001F0004121FA04F225
:1007500020EA020000EBD3705EEA430E08BF20EAF5
:10076000D37070BD94F0000F0FD101F0004640002F
:1007700041EB010111F4801F08BF013CF7D041EAB1
:10078000060195F0000F18BF704703F000465200B5
:1007900043EB030313F4801F08BF013DF7D043EA86
:1007A0000603704794EA0C0F0CEA135518BF95EA3C
:1007B0000C0F0CD050EA410618BF52EA4306D1D1C3
:1007C00081EA030101F000414FF0000070BD50EAE2
:1007D000410606BF1046194652EA430619D094EA6C
:1007E0000C0F02D150EA013613D195EA0C0F05D156
:1007F00052EA03361CBF104619460AD181EA0301AA
:1008000001F0004141F0FE4141F470014FF0000061
:1008100070BD41F0FE4141F4780170BD70B54FF0FC
:10082000FF0C4CF4E06C1CEA11541DBF1CEA13557C
:1008300094EA0C0F95EA0C0F00F0A7F8A4EB05045E
:1008400081EA030E52EA03354FEA013100F0888055
:100850004FEA03334FF0805545EA131343EA12631E
:100860004FEA022245EA111545EA10654FEA0026D3
:100870000EF000419D4208BF964244F1FD0404F58C
:10088000407402D25B084FEA3202B61A65EB0305E8
:100890005B084FEA32024FF480104FF4002CB6EBA5
:1008A000020E75EB030E22BFB61A754640EA0C0025
:1008B0005B084FEA3202B6EB020E75EB030E22BF65
:1008C000B61A754640EA5C005B084FEA3202B6EBA6
:1008D000020E75EB030E22BFB61A754640EA9C0065
:1008E0005B084FEA3202B6EB020E75EB030E22BF35
:1008F000B61A754640EADC0055EA060E18D04FEAF3
:10090000051545EA16754FEA06164FEAC30343EA92
:1009100052734FEAC2025FEA1C1CC0D111F4801F5F
:100920000BD141EA00014FF000004FF0004CB6E758
:1009300011F4801F04BF01430020B4F1FD0C88BFF7
:10094000BCF5E06F3FF6AFAEB5EB030C04BFB6EB02
:10095000020C5FEA500C50F1000041EB045170BDF5
:100960000EF0004E4EEA113114EB5C04C2BFD4EB22
:100970000C0541EA045170BD41F480114FF0000EA6
:10098000013C90E645EA060E8DE60CEA135594EA22
:100990000C0F08BF95EA0C0F3FF43BAF94EA0C0F25
:1009A0000AD150EA01347FF434AF95EA0C0F7FF49A
:1009B00025AF104619462CE795EA0C0F06D152EAEE
:1009C00003353FF4FDAE1046194622E750EA4106D2
:1009D00018BF52EA43067FF4C5AE50EA41047FF4E3
:1009E0000DAF52EA43057FF4EBAE12E74FF0FF3C48
:1009F00006E000BF4FF0010C02E000BF4FF0010C19
:100A00004DF804CD4FEA410C7FEA6C5C4FEA430C91
:100A100018BF7FEA6C5C1BD001B050EA410C0CBFE0
:100A200052EA430C91EA030F02BF90EA020F002042
:100A3000704710F1000F91EA030F58BF994208BFA9
:100A400090422CBFD8176FEAE37040F00100704766
:100A50004FEA410C7FEA6C5C02D150EA013C07D1BD
:100A60004FEA430C7FEA6C5CD6D152EA033CD3D008
:100A70005DF8040B704700BF8446104662468C4602
:100A80001946634600E000BF01B5FFF7B7FF002835
:100A900048BF10F1000F01BD4DF808EDFFF7F4FF5E
:100AA0000CBF012000205DF808FB00BF4DF808EDE9
:100AB000FFF7EAFF34BF012000205DF808FB00BF0C
:100AC0004DF808EDFFF7E0FF94BF012000205DF82E
:100AD00008FB00BF4DF808EDFFF7CEFF94BF0120E3
:100AE00000205DF808FB00BF4DF808EDFFF7C4FFDC
:100AF00034BF012000205DF808FB00BF4FEA410C25
:100B00007FEA6C5C02D150EA013C0AD14FEA430C07
:100B10007FEA6C5C02D152EA033C02D14FF0000044
:100B200070474FF0010070474FEA410212F5001282
:100B300015D211D56FF47873B3EB625212D94FEA24
:100B4000C12343F0004343EA505311F0004F23FA0E
:100B500002F018BF404270474FF00000704750EA63
:100B6000013005D111F0004008BF6FF00040704720
:100B70004FF00000704700BF53B94AB9002908BFC1
:100B800000281CBF4FF0FF314FF0FF3000F00CB8D1
:100B9000ADF1080C6DE904CE04F0DCFADDF804E0F8
:100BA000DDE9022304B07047704700BF10B5054C63
:100BB000237833B9044B13B10448AFF30080012309
:100BC000237010BDD4010020000000000C54000868
:100BD00008B5034B1BB103490348AFF3008008BDC0
:100BE00000000000D80100200C540008F0B58BB0C4
:100BF00005AD002405940694079408940994019483
:100C00002A4B1A6B42F004021A631A6B02F00402B8
:100C10000192019A02941A6B42F080021A631A6BD5
:100C200002F080020292029A03941A6B42F00102CF
:100C30001A631A6B02F001020392039A04941A6B6E
:100C400042F002021A631B6B03F002030493049B3D
:100C5000174F22462021384601F04EFA4FF4005338
:100C600005934FF40413069307942946114801F0A5
:100C700053F92023059301260696079408942946E4
:100C8000384601F049F907F5806732464021384679
:100C900001F032FA40230593069607940223089345
:100CA0002946384601F038F90BB0F0BD0038024053
:100CB000000002400008024010B514464FF0FF3318
:100CC00092B2024801F014FC204610BDF001002051
:100CD00072B6FEE708B50E480E4B03604FF4827300
:100CE000436000238360C3600222026101224261EB
:100CF0004FF4007282611822C26103624362836210
:100D00000A23C36200F0FCFA00B908BDFFF7E0FF58
:100D1000380200200038004008B50A480A4B03603A
:100D20004FF4E133436000238360C36003610C220E
:100D300042618361C36101F0ABFB00B908BDFFF7FD
:100D4000C7FF00BFF00100200044004010B594B080
:100D500008AC30220021204602F014FB002303934C
:100D6000049305930693079301931D4A116C41F078
:100D700080511164126C02F080520192019A029328
:100D8000184A116841F440411160126802F440426F
:100D90000292029A0221089101220B9210220C92D7
:100DA0000E910F9310924FF4A87311930423129392
:100DB0001393204600F090FD70B90F230393022196
:100DC000049105904FF480520692079003A800F01A
:100DD000D7FF18B914B010BDFFF77AFFFFF778FFFF
:100DE000003802400070004000B589B001F01AFAE6
:100DF000FFF7ACFFFFF7FAFEFFF76CFFFFF78CFF82
:100E0000114802F0DFF9642001F038FA00F078F8B8
:100E100005A800F0AFF80598FFF77EFB04460D46E5
:100E20000798FFF779FBCDE902010698FFF774FBFD
:100E3000CDE9000122462B46044802F059F964200E
:100E400001F01CFAE4E700BF285400083054000801
:100E500070B582B00D46144660F07F008DF8070033
:100E6000002240210F4801F047F90A2301220DF129
:100E700007010D4800F0A3FA70B90A23224629465B
:100E8000094800F07AFC064601224021054801F09D
:100E900033F9304602B070BD06460146034802F001
:100EA00027F9F1E700040240380200203C54000812
:100EB00010B582B000F07F008DF804008DF80510A9
:100EC000002240210B4801F017F90A23022201A950
:100ED000094800F074FA044638B901224021054857
:100EE00001F00AF9204602B010BD0146034802F0A5
:100EF000FFF8F2E700040240380200203C540008EA
:100F000000B583B001224021174801F0F5F8142004
:100F100001F0B4F920216020FFF7CAFF052001F09D
:100F2000ADF934216220FFF7C3FF00238DF80730AD
:100F300001220DF107014F20FFF78AFF18B99DF834
:100F40000730402B08D09DF80710084802F0D0F871
:100F50004FF0FF3003B000BD054802F033F98C219B
:100F60006020FFF7A5FFF5E7000402405054000899
:100F70006C54000810B582B0044606226946682009
:100F8000FFF766FF00BB024619E0510002AB03EB1E
:100F9000420313F8083C0931694411F8081C43EA7C
:100FA00001231BB207EE903A04EB8203F8EEE77AD6
:100FB000B7EE087A67EE877AC3ED007A0132022A2B
:100FC000E3DD002002B010BD4FF0FF30FAE7FEE78E
:100FD000FEE7FEE7FEE7FEE770477047704708B59B
:100FE00001F03AF908BD000000B583B0002100917E
:100FF0000C4B5A6C42F480425A645A6C02F48042A0
:101000000092009A01911A6C42F080521A641B6C93
:1010100003F080530193019B072001F0A9F803B06E
:1010200000BD00BF00380240F0B589B00023039333
:10103000049305930693079302681F4B9A4201D0CD
:1010400009B0F0BD0024009403F500331A6C42F49B
:1010500080421A641A6C02F480420092009A019451
:101060001A6B42F004021A631A6B02F00402019236
:10107000019A02941A6B42F002021A631B6B03F08E
:1010800002030293029B0C2303930225049503267B
:101090000696052707970DEB0301084800F03CFF73
:1010A0004FF480630393049505940696079703A96C
:1010B000034800F031FFC3E7003800400008024059
:1010C0000004024000B589B0002303930493059304
:1010D000069307930268144B9A4201D009B000BDF1
:1010E0000021019103F5FA331A6C42F400321A64BC
:1010F0001A6C02F400320192019A02911A6B42F0CA
:1011000001021A631B6B03F001030293029B0C2381
:10111000039302230493032306930723079303A94E
:10112000024800F0F9FED9E7004400400000024008
:101130002DE9F04383B004460F4616461D4601F0E4
:1011400097F80A9B1B1A03EB050801F091F88146FA
:10115000284B1B68C3F3CB3308FB03F301932368CD
:101160009B6837EA03030CBF01230023B3423DD041
:10117000B5F1FF3FF3D001F07BF84B46C01A404574
:1011800003D2019B73BB9846E9E72268536823F0BA
:10119000E00353606368B3F5827F0BD0A36AB3F5B5
:1011A000005F14D0012384F85130002384F85030BC
:1011B00003201CE0A368B3F5004F02D0B3F5806FA5
:1011C000ECD12268136823F040031360E6E722683D
:1011D000136823F4005313602268136843F4005328
:1011E0001360DFE7019B013B0193B8E7002003B0E8
:1011F000BDE8F0830800002070B584B004460B46BB
:101200000D461646009201220221FFF791FFD0B948
:10121000174B1B68174AA2FB03235B0D4FF47A722E
:1012200002FB03F303936368B3F5827F11D0039B42
:101230003BB1039B013B039323689B6813F0800F32
:10124000F5D104B070BD636D43F0200363650320E6
:10125000F7E700962B46002280212046FFF768FF23
:101260000028EED0636D43F020036365EFE700BF15
:1012700008000020819F5E1610B582B004460B4620
:101280004168B1F5827F13D06168B1F5827F28D1C2
:10129000A168B1F5806F18D000920022802120460D
:1012A000FFF746FF20B3636D43F02003636525E03D
:1012B0008168B1F5004F02D0B1F5806FE4D12068AC
:1012C000016821F040010160DEE700920022012167
:1012D0002046FFF72DFF58B1636D43F0200363658F
:1012E0000CE00092002201212046FFF721FF08B9FF
:1012F00002B010BD636D43F0200363650320F7E780
:1013000000285AD010B50446436A33B94368B3F590
:10131000827F05D00023C36102E0002303614361A3
:101320000023A36294F85130002B40D0022384F8AC
:1013300051302268136823F040031360636803F49C
:101340008273A26802F404421343E26802F400626A
:101350001343226902F002021343626902F00102A0
:101360001343A26902F400721343E26902F03802E7
:101370001343226A02F080021343A26A02F400526D
:10138000216813430B60638B03F00403626A02F06D
:101390001002216813434B602268D36923F4006371
:1013A000D36100206065012384F8513010BD84F8BA
:1013B00050302046FFF738FEB8E7012070472DE98E
:1013C000F04383B00446894690461D4600F050FF26
:1013D00094F85170012F3ED10646494600293BD072
:1013E0004246002A38D094F85030012B33D00123E4
:1013F00084F85030032384F8513000236365C4F827
:101400003090A4F83480A4F83680A363A387E387E0
:1014100063642364A368B3F5004F21D023681A687E
:1014200012F0400F03D11A6842F040021A60E368DC
:10143000B3F5006F1FD0636813B14346012B58D139
:10144000226B236812781A73236B01332363E38EB4
:10145000013BE3864DE00227384603B0BDE8F08348
:101460002268136823F0400313602268136843F472
:1014700080431360D2E7636813B14346012B13D155
:10148000226B23681288DA60236B02332363E38EB6
:10149000013BE38608E000F0EBFE801BA84202D38C
:1014A000B5F1FF3F12D18DB1E38E002B3AD0236806
:1014B0009A6812F0020FEED0226B1288DA60236B6A
:1014C00002332363E38E013BE386EDE7012384F8D7
:1014D0005130002384F8503022E0226B12781A73C6
:1014E000216B01312163B4F836C00CF1FF3CA4F844
:1014F00036C0E38EB3B123689A6812F0020FECD1C4
:1015000000F0B6FE801BA84202D3B5F1FF3F01D127
:10151000002DEED1012384F85130002384F850309F
:10152000032799E7324629462046FFF765FE08B1B2
:1015300020236365A36833B901932368DA680192B5
:101540009B680193019B012384F85130002384F8A8
:101550005030636D002B7FF47FAF1F467CE72DE991
:10156000F04383B004460F46914698460A9D00F02A
:101570007FFE064694F851306268012B07D0B2F521
:10158000827F4BD1A268002A48D1042B46D1002F7C
:1015900000F0F1804B46002B00F0ED804346002B1D
:1015A00000F0E98094F85030012B37D0012384F803
:1015B000503094F85130042B02D0052384F8513078
:1015C00000236365C4F83890A4F83E80A4F83C80FA
:1015D0002763A4F83680A4F8348023646364236806
:1015E0001A6812F0400F03D11A6842F040021A60E4
:1015F000E368B3F5006F15D0636813B14346012B60
:1016000009D1226B236812781A73236B0133236389
:10161000E38E013BE38601231F466AE0022003B00C
:10162000BDE8F083636813B14346012B09D1226BF7
:1016300023681288DA60236B02332363E38E013B55
:10164000E38601231F4618E02268936813F0010324
:101650000BD0E18F49B1D168A26B1180A26B02322D
:10166000A263E28F013AE2871F4600F001FE801B71
:10167000A84202D3B5F1FF3F1AD1E38E13B9E38F2D
:10168000002B58D023689A6812F0020FDCD0E28E4B
:10169000002AD9D0002FD7D0226B1288DA60236BB2
:1016A00002332363E38E013BE38600231F46CBE72F
:1016B000012384F85130002384F8503039E0226847
:1016C000936813F001030BD0E18F49B1D168A26B8D
:1016D0001170A26B0132A263E28F013AE2871F46CA
:1016E00000F0C6FD831BAB4202D3B5F1FF3F1AD118
:1016F000CDB1E38E0BB9E38FEBB123689A6812F09A
:10170000020FDCD0E28E002AD9D0002FD7D0226B76
:1017100012781A73236B01332363E38E013BE38654
:1017200000231F46CBE7012384F85130002384F8BF
:101730005030032073E7324629462046FFF75CFD10
:10174000A0B9A36833B901932368DA6801929B6852
:101750000193019B012384F85130002384F8503019
:10176000636D002B3FF45BAF012058E720236365D6
:10177000002384F85030012051E72DE9F04383B075
:1017800090F85160012E35D10446884691461D4699
:1017900089B382B34368B3F5827F01D1836873B3A1
:1017A00000F066FD074694F85030012B22D001234B
:1017B00084F85030042384F8513000236365C4F862
:1017C0003880A4F83C90A4F83E902363A386E38677
:1017D00023646364A368B3F5004F1AD023681A68C2
:1017E00012F0400F03D11A6842F040021A60E36819
:1017F0001BB345E00226304603B0BDE8F083042366
:1018000080F85130009513460A46FFF7A8FE0646B9
:10181000F1E72268136823F040031360226813681D
:1018200023F480431360D9E700F022FDC01BA842D7
:1018300002D3B5F1FF3F12D18DB1E38F002B37D02A
:1018400023689A6812F0010FEED0A26B1B7B137015
:10185000A36B0133A363E38F013BE387EDE7012330
:1018600084F85130002384F850300326C3E700F099
:10187000FFFCC01BA84202D3B5F1FF3F11D185B1D7
:10188000E38FABB123689A6812F0010FEFD0DA68EA
:10189000A36B1A80A36B0233A363E38F013BE3873F
:1018A000EEE7012384F85130002384F85030DCE760
:1018B0003A4629462046FFF7DFFC08B1202363653E
:1018C000012384F85130002384F85030636D002BDD
:1018D00091D11E468FE70000002800F0DC8170B532
:1018E00082B00446036813F0010F3BD0984B9B680D
:1018F00003F00C03042B2DD0954B9B6803F00C03D5
:10190000082B22D06368B3F5803F4ED0B3F5A02FEB
:1019100051D08F4B1A6822F480321A601A6822F470
:1019200080221A606368002B4FD000F0A1FC0546AE
:10193000874B1B6813F4003F14D100F099FC401B47
:101940006428F5D97BE001207AE0814B5B6813F4D1
:10195000800FD7D07E4B1B6813F4003F02D0636822
:10196000002BF0D0236813F0020F51D0784B9B6806
:1019700013F00C0F3CD0764B9B6803F00C03082B44
:1019800031D0E368002B66D0724B01221A6000F060
:101990006FFC05466E4B1B6813F0020F52D100F02E
:1019A00067FC401B0228F5D949E0694A136843F4F3
:1019B00080331360B6E7664B1A6842F480221A60DF
:1019C0001A6842F480321A60ACE700F051FC054618
:1019D0005F4B1B6813F4003FC4D000F049FC401B70
:1019E0006428F5D92BE05A4B5B6813F4800FC8D1FB
:1019F000574B1B6813F0020F02D0E368012BA2D1F2
:101A0000534A136823F0F803216943EAC1031360C2
:101A1000236813F0080F41D063696BB34D4B01226B
:101A2000C3F8802E00F024FC0546494B5B6F13F091
:101A3000020F33D100F01CFC401B0228F5D9032013
:101A400002B070BD424A136823F0F803216943EAEB
:101A5000C1031360DCE73F4B00221A6000F008FC72
:101A600005463B4B1B6813F0020FD1D000F000FC81
:101A7000401B0228F5D9E2E7364B0022C3F8802E3E
:101A800000F0F6FB0546324B5B6F13F0020F05D0FA
:101A900000F0EEFB401B0228F5D9D0E7236813F0D5
:101AA000040F76D02A4B1B6C13F0805F33D10023D8
:101AB0000193274B1A6C42F080521A641B6C03F09E
:101AC00080530193019B01231E46234B1B6813F493
:101AD000807F23D0A368012B33D0052B3ED01C4B35
:101AE0001A6F22F001021A671A6F22F004021A67B5
:101AF000A368002B3CD000F0BBFB0546144B1B6FCA
:101B000013F0020F44D100F0B3FB401B41F28833C5
:101B10009842F3D993E700231E46D6E70E4A13688E
:101B200043F48073136000F0A3FB05460A4B1B6867
:101B300013F4807FCED100F09BFB401B0228F5D927
:101B40007DE7034A136F43F001031367D0E700BF3B
:101B50000038024000004742007000404F4B1A6FAF
:101B600042F004021A671A6F42F001021A67BFE7D7
:101B700000F07EFB0546494B1B6F13F0020F07D0A8
:101B800000F076FB401B41F288339842F3D956E7C8
:101B9000DEB9A369002B50D0404A926802F00C02D3
:101BA000082A4CD0022B16D03D4B00221A6600F0BA
:101BB0005FFB0446394B1B6813F0007F3DD000F0FB
:101BC00057FB001B0228F5D939E7344A136C23F080
:101BD00080531364DDE7324B00221A6600F048FBA5
:101BE00005462E4B1B6813F0007F05D000F040FB2C
:101BF000401B0228F5D922E7E369226A1343626A8F
:101C000043EA8213A26A5208013A43EA0243E26AB3
:101C100043EA0263214A5360214B01221A6600F015
:101C200027FB04461D4B1B6813F0007F05D100F015
:101C30001FFB001B0228F5D901E7002000E7012B5C
:101C40003FF481AE154B5B6803F48001E269914279
:101C50007FF479AE03F03F02216A8A427FF473AECB
:101C6000616A47F6C0721A40B2EB811F7FF46BAE17
:101C700003F44031A26A5208013AB1EB024F7FF4FB
:101C800062AE03F07063E26AB3EB026F01D1002031
:101C9000D6E60120D4E60120704700BF003802409C
:101CA0000000474208B5334B9B6803F00C03042B3C
:101CB0005BD0082B5BD12F4B5A6802F03F025B6868
:101CC00013F4800F2CD02B4B5868C0F388104FEAC8
:101CD000401CBCEB000C6EEB0E0E4FEA8E1343EA79
:101CE0009C634FEA8C11B1EB0C0163EB0E03DB003C
:101CF00043EA5173C90011EB000C43F10003590290
:101D000000234FEA4C2041EADC51FEF735FF194B26
:101D10005B68C3F3014301335B00B0FBF3F008BD24
:101D2000144B5868C0F388104FEA401CBCEB000C01
:101D30006EEB0E0E4FEA8E1343EA9C634FEA8C1152
:101D4000B1EB0C0163EB0E03DB0043EA5173C900F6
:101D500011EB000C43F10003990200234FEA8C20A1
:101D600041EA9C51FEF708FFD1E70348D7E7034853
:101D7000D5E700BF0038024000127A000024F400CA
:101D8000002800F0978070B50D4604464A4B1B684A
:101D900003F007038B4206D2474B19701B6803F010
:101DA00007038B4249D1236813F0020F17D013F0B9
:101DB000040F04D0414A936843F4E05393602368CE
:101DC00013F0080F04D03D4A936843F460439360D6
:101DD0003A4A936823F0F003A1680B4393602368A9
:101DE00013F0010F31D06368012B21D09A1E012A14
:101DF00025D9324A126812F0020F1ED02F498A6884
:101E000022F0030213438B6000F032FA06462B4B9C
:101E10009B6803F00C036268B3EB820F15D000F0EF
:101E200027FA801B41F288339842F0D9032005E05D
:101E3000224A126812F4003FE0D1012070BD1F4A0F
:101E4000126812F0007FD9D1F7E71B4B1B6803F033
:101E50000703AB4206D9184B1D701B6803F007033C
:101E6000AB42EAD1236813F0040F06D0134A9368FB
:101E700023F4E053E1680B439360236813F0080FE9
:101E800007D00E4A936823F46043216943EAC103F3
:101E90009360FFF707FF094B9B68C3F30313084ADE
:101EA000D35CD840074B1860074B186800F096F9D0
:101EB0000020C3E701207047003C02400038024088
:101EC000885400080800002004000020014B186816
:101ED000704700BF0800002008B5FFF7F7FF044B6C
:101EE0009B68C3F38223034AD35CD84008BD00BF7C
:101EF000003802408054000808B5FFF7E7FF044BA4
:101F00009B68C3F34233034AD35CD84008BD00BF8B
:101F1000003802408054000870B582B08E4600231D
:101F200069E085684FEA430C032101FA0CF125EAC8
:101F30000105DEF80C1001FA0CF1294381604168BB
:101F400021EA0201DEF80420C2F300129A400A439B
:101F5000426064E0D908083150F8212003F00705F9
:101F6000AD004FF00F0C0CFA05FC22EA0C0CDEF869
:101F70001020AA4042EA0C0240F8212066E0042228
:101F800000E0002202FA0CF22A430231564D45F8D5
:101F90002120564A9168E24321EA0405DEF80460F4
:101FA00016F4801F01D044EA010550498D60C968CC
:101FB00002EA0105DEF8046016F4001F01D044EACD
:101FC00001054A49CD60496802EA0105DEF804606E
:101FD00016F4003F01D044EA010544494D60096808
:101FE0000A40DEF8045015F4803F01D044EA0102B3
:101FF0003E490A6001330F2B74D801229A40DEF863
:10200000001001EA020432EA0101F3D1DEF8041003
:1020100001F0030C0CF1FF3CBCF1010F81D9DEF89B
:10202000042002F00302032A0AD0C1685D000322E3
:10203000AA4021EA0201DEF80820AA400A43C26051
:10204000DEF8042002F00302022A83D001684FEA7E
:10205000430C032202FA0CF221EA0201DEF804200A
:1020600002F0030202FA0CF20A430260DEF80420D6
:1020700012F4403FBED0002201921D4A516C41F43F
:1020800080415164526C02F480420192019A990895
:102090008D1C154A52F8255003F0030C4FEA8C0CA6
:1020A0000F2202FA0CF225EA0205124A90423FF48E
:1020B00068AF02F5806290420ED002F580629042D5
:1020C0000CD002F5806290420AD002F58062904204
:1020D0003FF455AF072255E7012253E7022251E7AB
:1020E00003224FE702B070BD00380140003C0140C0
:1020F00000380240000002400AB1816170470904C3
:1021000081617047002807DB090100F1604000F59C
:10211000614080F80013704700F00F000901014B87
:102120001954704714ED00E000B500F00700A0F16D
:10213000030CBCF1040F07D8C0F1070E04300628C9
:1021400006D84FF0000C03E04FF0040E4FF0000CE7
:102150004FF0FF3303FA0EF021EA000101FA0CF10F
:1021600003FA0CF322EA030241EA020000BD000078
:10217000074AD36823F4E0631B041B0C000200F43D
:10218000E060034343F0BF6343F40033D360704720
:1021900000ED00E010B50446054BD868C0F30220FE
:1021A000FFF7C2FF01462046FFF7ACFF10BD00BF9E
:1021B00000ED00E00138B0F1807F0BD24FF0E0235A
:1021C0005861054AF02182F8231000209861072207
:1021D0001A6170470120704700ED00E010B5044619
:1021E0000D4B18680D4B1A784FF47A73B3FBF2F36A
:1021F000B0FBF3F0FFF7DEFF08B90F2C01D9012087
:1022000010BD024621464FF0FF30FFF7C3FF044BDD
:102210001C600020F4E700BF080000200000002040
:102220000400002008B50B4B1A6842F400721A60D3
:102230001A6842F480621A601A6842F480721A6066
:102240000320FFF795FF0020FFF7C8FFFEF7CCFE45
:10225000002008BD003C0240034A1168034B1B7874
:102260000B441360704700BF900200200000002064
:10227000014B1868704700BF9002002038B5044633
:10228000FFF7F6FF0546B4F1FF3F02D0044B1B7881
:102290001C44FFF7EDFF401BA042FAD338BD00BF3E
:1022A00000000020026802F10C0353E8003F23F411
:1022B00090730C3242E800310029F3D1026802F138
:1022C000140353E8003F23F00103143242E80031C5
:1022D0000029F3D1036B012B05D0202380F8423075
:1022E000002303637047026802F10C0353E8003FC8
:1022F00023F010030C3242E800310029F3D1ECE75F
:1023000010B504460268136923F44053C1680B43B7
:102310001361836802691A4343691A43C3691A4304
:102320000168CB6823F4164323F00C031343CB60FE
:102330000268536923F4407381690B435361036856
:10234000314A934206D002F58062934202D0FFF7F1
:10235000C3FD01E0FFF7D0FDE369B3F5004F29D0DD
:102360000021031849411B1841F10001C90041EA4D
:102370005371DB00181863684FEA83024FEA9373C6
:1023800041F10001FEF7F8FB204AA2FB00314909A8
:10239000642303FB11031B013233A2FB03235B09FC
:1023A00003F0F00202EB011203F00F032168134463
:1023B0008B6010BD0023021843EB0301121841F19A
:1023C0000001C90041EA5271D200101841F1000128
:1023D000626892185B41FEF7CFFB0C4AA2FB00310A
:1023E0004909642303FB1103DB003233A2FB0323FF
:1023F0005B095A0002F4F87202EB011203F00703C2
:10240000216813448B60D4E7001001401F85EB5115
:102410002DE9F04182B004460D4616469846089FC5
:1024200023681B6835EA03030CBF4FF0010C4FF023
:10243000000CB44528D1B7F1FF3FF1D0FFF718FFEA
:102440004346C01AB8421DD8E7B12368DA6812F0D3
:10245000040FE5D0802DE3D0402DE1D01A6812F0B2
:10246000080FDDD0002501951A6801925B68019381
:10247000019B2046FFF716FF0823636484F8405051
:10248000012002E0032000E0002002B0BDE8F0815E
:1024900060B310B5044690F8413013B3242384F898
:1024A00041302268D36823F40053D3602046FFF7FD
:1024B00027FF2268136923F490431361226853694C
:1024C00023F02A0353612268D36843F40053D36096
:1024D00000206064202384F8413084F84230606337
:1024E00010BD80F84030FEF7EDFDD7E701207047C2
:1024F0002DE9F04182B01E4690F84130202B54D196
:1025000004460D46904601B11AB9012002B0BDE85B
:10251000F08100234364212380F84130FFF7A8FEB7
:102520000746A4F82480A4F82680A368B3F5805F4A
:1025300002D00023984614E0236923B30023984671
:102540000FE0202384F841300320DFE7424632F8D1
:10255000023B90462268C3F308035360E28C013AC1
:10256000E284E28C92B100963B4600228021204614
:10257000FFF74EFF0028E4D1002DE7D015F8012B1E
:1025800023685A60EAE7A8461D46EAE700963B46FC
:1025900040212046FFF73CFF18B9202384F8413042
:1025A000B4E7202384F84130CEE70220AEE70000F4
:1025B000034AD2F8883043F47003C2F88830704779
:1025C00000ED00E008B503460D4A0E490E480068CC
:1025D00040B10D4800680344521A934208D80A4A91
:1025E000136008BD0848DFF824C0C0F800C0F0E759
:1025F00000F01AFF0C2303604FF0FF30F1E700BF3B
:10260000000002200004000094020020E8030020E3
:102610000120704708B500F007FF162303604FF054
:10262000FF3008BD08B54FF0FF31FFF7F3FFFEE7BD
:1026300070B50E461546002406E0AFF30080314623
:1026400001F8010B01340E46AC42F6DB284670BDA2
:102650004FF0FF3070474FF400534B60002070473D
:102660000120704700207047DFF834D0FFF7A0FF4B
:102670000C480D490D4A002302E0D458C4500433DD
:10268000C4188C42F9D30A4A0A4C002301E01360B3
:102690000432A242FBD300F0CDFEFEF7A5FB70474B
:1026A0000000022000000020D4010020F4570008A0
:1026B000D4010020E4030020FEE72DE9FF4755EC9C
:1026C000104B0E4619462B1EBCBF05F100431D469C
:1026D0000D9BDDF830A0914623F02008BBBF2246B9
:1026E000144600222D22B8F1460F0A7005D0B8F129
:1026F000450F00D10136022100E0032103AB019315
:1027000002AB009345EC104B5346324600F044FFB9
:10271000B8F1470F07460FD119F0010F29D000EB90
:1027200006090022002320462946FEF7B5F908B124
:10273000CDF80C90302219E0B8F1460F00EB0609F5
:10274000EFD10378302B0AD10022002320462946FE
:10275000FEF7A2F918B9C6F10106CAF80060DAF866
:1027600000309944DDE7591C03911A70039B4B45D7
:10277000F9D3039B0E9ADB1B3846136004B0BDE807
:10278000F087F7B50029BABF49422D232B23092929
:10279000027043702ADD0DF10704871CA6460A2645
:1027A000A446B1FBF6F506FB15123032632904F19D
:1027B000FF340CF8012C2946F2DC3031ACF1020276
:1027C00004F8011C411C144672450AD30DF109039B
:1027D000A3EB0C03744588BF00233B44181A03B0D5
:1027E000F0BD12F8013B01F8013FEDE73023303135
:1027F0008370C170031DF1E72DE9F04F8FB00C46D7
:10280000DDF8608016461F46054600F0C3FD0368EC
:1028100005931846FDF714FD00230C93D8F80030FB
:102820000890073323F0070303F1080294F818A077
:10283000D4F800B0C8F80020D3E9008929F000439B
:102840000793CDF81880C4E91289DDE906019B4B96
:102850004FF0FF32FEF752F9002836D1DDE90601CC
:10286000964B4FF0FF32FEF72BF970BB002200238E
:1028700040464946FEF71AF910B12D2384F843303B
:102880008F4A904BBAF1470F8CBF9046984603236E
:102890002BF00402236122604FF0000921460097CB
:1028A00033460DAA284600F0C9F9411C00F0988172
:1028B00023685A0500F19380236942463146284631
:1028C000B847411C40F0B4808AE142464B4640463E
:1028D0004946FEF713F940B1B9F10003BCBF2D23FF
:1028E00084F84330784A794BCCE763680AF0DF021A
:1028F00006925A1C3BD1062363604BF4806200238E
:10290000226003930CABCDE901A30BAB009361688C
:1029100049EC108B0DF12B032846FFF7CEFE0AF091
:10292000DF03472B0B99804629D1C81C02DB636863
:102930008B4240DAAAF1020A5FFA8AFA013952465A
:1029400004F150000B91FFF71CFF0C9A012A8146FD
:1029500002EB000323DC2268D10720D423619DF819
:102960002B30002B9AD02D2384F8433096E70AF0C1
:10297000DF02472AC1D1002BBFD10123BCE7BAF146
:10298000650FDBD9BAF1660F17D10029636808DD3E
:1029900013B92268D2071ED501330B4406E0013378
:1029A000DCE713B92268D00717D502332361A1658C
:1029B0004FF00009D3E74FF0670A0C9B8B4203DC12
:1029C000236803F00103E8E70029D4BFC1F1020244
:1029D00001221344EAE70B46E8E70123E6E7BAF1F0
:1029E000650F40F2D780D4E9120100220023FEF7E0
:1029F00053F8002832D00123354A31462846B847DB
:102A0000431C00F0ED80DDE90B38434502DB236811
:102A1000D9070DD5059A089B31462846B847421C70
:102A200000F0DE8008F1FF384FF00009C84509DCEE
:102A300023689A0700F1FD80E0680D9B9842B8BFBB
:102A40001846CDE0012304F11A0231462846B84762
:102A5000431C00F0C58009F10109E7E70B9B8342A5
:102A600038DC31461A4A01232846B847411C00F099
:102A7000B780DDE90B3959EA030302D12368DA078D
:102A8000D6D5089B059A31462846B847431C00F026
:102A9000A7804FF0000A04F11A0B0B9B5B425345D1
:102AA00001DC4B4609E7314601235A462846B84720
:102AB000411C00F095800AF1010AEEE7FFFFEF7F6D
:102AC0009C54000898540008A4540008A05400081E
:102AD000A8540008A36DDDF830904B45A8BF4B46C5
:102AE000B3F1000A05DD424631462846B847421C8C
:102AF00076D02AEAEA7306934FF0000B04F11A022B
:102B0000D4F858A0069BAAEB03035B4537DC0B9B6C
:102B1000994502DC2368D90706D5059A089B3146FA
:102B20002846B847421C5BD00B9BA9EB030BA9EBD3
:102B30000A039B45A8BF9B46BBF1000F07DD5B4620
:102B400008EB0A0231462846B847431C48D02BEA16
:102B5000EB784FF0000A04F11A0B0B9BA9EB03036F
:102B6000A3EB080353457FF763AF314601235A4671
:102B70002846B847411C33D00AF1010AEDE701238A
:102B8000314628460992B847431C29D0099A0BF1CF
:102B9000010BB5E7DDF830A0BAF1010F01DCDA076F
:102BA00035D50123424631462846B847431C17D045
:102BB0003146089B059A2846B847411C10D0D4E9F5
:102BC0001201002200230AF1FF3AFDF765FFC8B9A0
:102BD000534608F1010231462846B847431C0DD13F
:102BE0000FB0BDE8F08F5A46012331462846B8475A
:102BF000421CF5D008F10108D045F4DB4B4604F146
:102C000050025BE64FF0000804F11A0BF4E70123D1
:102C10004246E0E701234A4631462846B847431C6E
:102C2000DED008F10108E3680D9A9B1A4345F1DCF8
:102C300002E74FF0000804F11909F4E72DE9F04725
:102C4000164699468A680B69089F9342B8BF134697
:102C5000336091F8432080460C460AB1013333605B
:102C600023689D0642BF336802333360256815F040
:102C7000060506D104F1190AE36832689B1AAB42D3
:102C800028DC94F843302268003B18BF01239006EB
:102C900029D404F1430249464046B847421C17D0A4
:102CA0002368A168226903F00603042B01BFE568CD
:102CB0003368ED1A25EAE57518BF00258B1A2B44F9
:102CC0009142C8BF1D4600261A34B54217D10020D4
:102CD000BDE8F0874946012352464046B847411CAB
:102CE000F6D00135C8E7E1185A1C302081F84300BE
:102CF000224494F8451082F843100233C9E70123B7
:102D0000224649464046B847431CE1D00136DCE73D
:102D10002DE9F04316460A7E85B0782A1F460546FF
:102D20000C9B0C4609D8622A01F1430C0AD8002AF0
:102D300000F0EA80582A00F0B88004F1420884F8D4
:102D400042203BE0A2F163011529F6D801A050F81A
:102D500021F000BFAD2D0008C12D00083B2D00085B
:102D60003B2D00083B2D00083B2D0008C12D00081D
:102D70003B2D00083B2D00083B2D00083B2D000893
:102D8000E92E0008EB2D00089D2E00083B2D0008C1
:102D90003B2D0008112F00083B2D0008EB2D0008EB
:102DA0003B2D00083B2D0008A72E00081A68111DB6
:102DB0001960136884F8423004F142080123B6E038
:102DC0001A682068111D1960030601D5136803E015
:102DD0004106FBD5B2F90030002B03DA2D225B420D
:102DE00084F843205E490A2212E01A682068111D07
:102DF0001960030601D5136802E04106FBD513886C
:102E0000227E57496F2A6DD10822002084F84300A2
:102E1000D4F804E0C4F808E0BEF1000FE04606DB99
:102E2000206853EA0E0E20F0040020600AD0B3FBA5
:102E3000F2F002FB103E9A4211F80EE008F801EDA4
:102E40000346F4D9082A0BD12368DA0708D5236989
:102E500062689A42DEBF302308F8013C08F1FF386F
:102E6000ACEB080323613346009703AA21462846AA
:102E7000FFF7E4FE431C0ED0314623694246284644
:102E8000B847411C07D023689A0765D4E068039BC4
:102E90009842B8BF184605B0BDE8F083226842F0FA
:102EA0002002226078222F4900E02D4984F8452035
:102EB0001868226800F1040EC3F800E0130601D57B
:102EC000036802E05306FBD50388D00744BF42F0F5
:102ED000200222600BB1102297E7226822F0200224
:102EE0002260F8E70A2290E71A68D4F800E06169E6
:102EF000101D18601EF0800F136801D0196003E0E8
:102F00001EF0400FFAD0198000232361E046AAE7A3
:102F10001A68111D1960D2F80080626800214046CD
:102F2000FDF73EF910B1A0EB080060606368236113
:102F3000002384F8433096E7012304F11902314657
:102F40002846B847431CA6D008F10108E368039A55
:102F50009B1A4345F0DC99E74FF00008F6E700BF05
:102F6000AA540008BB540008002310B50446C0E969
:102F70000033C0E90433836081814366C281836189
:102F8000194608225C3000F0FDF90D4B63620D4BD1
:102F9000A3620D4BE3620D4B23630D4B24629C42F5
:102FA00006D003F16802944202D0D0339C4205D18E
:102FB00004F15800BDE8104000F060BA10BD00BF39
:102FC000D5310008F73100082F32000855320008CB
:102FD00098020020024A0349034800F06BB800BF82
:102FE0000C000020654E00081C00002041680C4BBE
:102FF000994210B5044601D001F034FFA168094B95
:10300000994202D0204601F02DFFE168064B99421B
:1030100004D02046BDE8104001F024BF10BD00BF21
:1030200098020020000300206803002010B50A4B1E
:103030000A4A1A600A4800220421FFF795FF09484E
:1030400001220921FFF790FFBDE810400648022247
:103050001221FFF789BF00BFD0030020D52F000841
:10306000980200200003002068030020014800F0BF
:1030700006BA00BFD9030020014800F001BA00BF22
:10308000D903002010B50446FFF7F0FF236A1BB1F7
:10309000BDE81040FFF7F0BF044B2362044B1B68F0
:1030A000002BF5D1FFF7C2FFF2E700BFED2F0008BC
:1030B000D00300202DE9F8438046894614460026B7
:1030C000D4E90175013F05D52468002CF8D13046BC
:1030D000BDE8F883AB89012B07D9B5F90E30013370
:1030E00003D029464046C84706436835EAE7000052
:1030F0000FB407B5064904AB086853F8042B816880
:10310000019301F013FD03B05DF804EB04B07047C8
:1031100018000020F8B5036A846806460F460BB90C
:10312000FFF7B0FF636ED90705D4A3899A0502D4CF
:10313000A06D00F0A4F9A3891B0702D52369002B19
:1031400038D12146304600F0C9F8002832D04FF07F
:10315000FF3524E0002B04DAA269934218DB0A2928
:1031600016D023685A1C22601970A36817F8011F33
:10317000013BA3600029EDD18B421DDA0A212246D2
:10318000304600F06BF8411C0CBF05460A2506E0EE
:103190002246304600F062F80546681CE5D1636EB1
:1031A000DA0705D4A3899B0502D4A06D00F068F965
:1031B0002846F8BD013FD8E723680A255A1C22603B
:1031C0001D70ECE7024B01461868FFF7A3BF00BF74
:1031D0001800002010B50C46B1F90E1000F000F9EF
:1031E0000028ABBF636DA3891B1823F48053ACBFC9
:1031F0006365A38110BD2DE9F0411F468B89DB0576
:1032000005460C46164605D5B1F90E1002230022DC
:1032100000F0D4F8A389B4F90E1023F48053A381ED
:1032200032463B462846BDE8F04100F0EBB810B509
:103230000C46B1F90E1000F0C1F8B4F90C30421C84
:103240000BBF23F4805343F48053A381A38118BFA1
:10325000606510BDB1F90E1000F0A0B8F8B50646D3
:103260000F46144618B1036A0BB9FFF70BFFA369A9
:10327000A360A3891A0726D5236923B3236920688D
:10328000C01A6369834204DC2146304601F0EAFD3E
:10329000F8B9A368013BA36023685A1C22601F7021
:1032A000636901308342FDB204D0A389DB0712D5E4
:1032B0000A2D10D12146304601F0D4FD002818BF58
:1032C0004FF0FF3507E02146304600F007F80028B0
:1032D000D4D04FF0FF352846F8BD000038B5284B54
:1032E000054618680C4618B1036A0BB9FFF7CAFE09
:1032F000B4F90C30190720D4DA0607D409222A6061
:1033000043F04003A3814FF0FF3038BD580711D57B
:10331000616B41B104F14403994202D0284600F0A8
:103320001FFF002363630022A38962602269226079
:1033300023F0240343F00803A38123694BB9A38935
:1033400003F42073B3F5007F03D02146284601F033
:10335000D7FDB4F90C3013F0010208D00022A260AE
:1033600062695242A261226932B10020CDE7990719
:1033700058BF6269A260F6E71A06F6D5C0E700BF3B
:103380001800002002440346934200D1704703F81E
:10339000011BF9E7004870475801002038B5064C7A
:1033A0000023054608462360FFF752F9431C02D16B
:1033B000236803B12B6038BDD403002038B5074C17
:1033C000054608461146002222601A46FFF74AF9D0
:1033D000431C02D1236803B12B6038BDD403002005
:1033E00038B5074C054608461146002222601A46A9
:1033F000FFF71EF9431C02D1236803B12B6038BDCF
:10340000D403002038B5074C054608461146002273
:1034100022601A46FDF750FC431C02D1236803B119
:103420002B6038BDD4030020014B1868704700BFE3
:103430001800002070B50D4B0D4C00261D1BB6EB7F
:10344000A50F09D101F0E2FF0A4C0B4B00261D1B12
:10345000B6EBA50F05D170BD54F8043B9847013673
:10346000EDE754F8043B98470136F1E7EC570008C4
:10347000EC570008EC570008F057000870477047F9
:1034800070472DE9F74F03690C69A34280467EDB44
:10349000013C01F11407A30000F11405009305EBB2
:1034A0008403019357F8243055F8242001339A42BD
:1034B00007EB8409B2FBF3F62ED34FF0000ABC46AB
:1034C000AE46D3465CF8043B98B206FB00A0020C63
:1034D0001B0C06FB0323DEF8002080B292B2121A06
:1034E0005A44DEF800004FEA134A9BB2C3EB224372
:1034F00003EB104392B242EA0342E1454EF8042B3B
:103500004FEA234BDED2009BEB582BB9019B1A1FCD
:10351000954230D3C8F81040404601F0D5F9002854
:1035200025DB01362946002057F8042BD1F800C0CE
:103530001FFA82FE1FFA8CF3A3EB0E030344120C56
:10354000C2EB234202EB1C429BB243EA0243B94561
:1035500041F8043B4FEA2240E6D255F8242005EB1F
:10356000840322B9043B9D420BD3C8F81040304677
:1035700003B0BDE8F08F1368002BCBD1043A013CB7
:10358000C6E71A68002AF0D1043B013CEBE70020B3
:10359000EEE70000000000002DE9F04F9BB08DED3C
:1035A000100B0E92C269249C0C9157EC106B824652
:1035B000159382B9102000F01FFE0246CAF81C00C5
:1035C00020B9A94BEF21A94801F014FD0023C0E95F
:1035D00001330360C360116859B152684A60012326
:1035E00093408B60504600F0FBFEDAF81C3000225E
:1035F0001A60B7F10008B5BF0123002323602360E0
:103600009B4BBCBF28F00048CDF8448033EA080348
:1036100013D1159AC8F3130842F20F7358EA06083B
:10362000136000F06B85259BDFF85892002B00F0AB
:103630006D8509F1030300F067BD9DED107B00224D
:1036400051EC170B00238DED0A7BFDF725FA81461F
:1036500058B1159A01231360259B13B1259A854B08
:103660001360DFF8249200F051BD9DED0A0B18AAFB
:1036700019A9504601F0DCF95FEA1854189D019031
:1036800077D0C8F31308DDE90A0148F07F5848F401
:103690004018A4F2FF34CDF85890774B00224146F1
:1036A000FCF7DAFD6AA3D3E90023FCF78DFF6AA3D8
:1036B000D3E90023FCF7D2FD064620460F46FCF76F
:1036C00019FF67A3D3E90023FCF77EFF02460B46F0
:1036D00030463946FCF7C2FD06460F46FDF724FA90
:1036E00000228346002330463946FDF7DFF948B112
:1036F0005846FCF7FFFE32463B46FDF7CDF908B9C8
:103700000BF1FF3BBBF1160F50D85C4B03EBCB0327
:10371000D3E90023DDE90A01FDF7C8F9002847D005
:103720000BF1FF3B002314932D1B6F1E49BFC5F106
:10373000010300230293002758BF0293BBF1000F3F
:1037400038DB00235F44CDF83CB009930C9B092B78
:1037500065D8052BC4BF043B0C930C9BA3F102035B
:10376000CCBF00240124032B65D8DFE803F05456B6
:10377000392D199C2C4404F23243202BC1BFC3F1D4
:10378000400308FA03F804F2124326FA03F3D6BF03
:10379000C3F1200348EA030006FA03F0FCF79AFE9F
:1037A0000123A1F1F878013C169376E70123BAE7EB
:1037B0001490B9E7029BA3EB0B030293CBF1000338
:1037C000099300230F93C1E701230D930E9B5B44E4
:1037D00003F1010808934346012BB8BF012306E01B
:1037E00001230D930E9B002B28DD08939846DAF8F1
:1037F0001C000021042202F114059D4223D94160DE
:10380000504600F0AFFD814600283FD11C4B0246D8
:1038100040F2AF11D7E60023E3E70023D5E7012408
:103820000023CDE90C344FF0FF3300220893984673
:103830000E921223DBE701230D93F4E70123089393
:1038400098460E93D3E701315200D4E7AFF30080DE
:1038500061436F63A787D23FB3C8608B288AC63F96
:10386000FB799F501344D33FD9540008F05400080B
:103870000000F07FA95400080000F83F1856000827
:1038800032550008D5540008A8540008DAF81C3056
:10389000B8F10E0F18606AD8002C68D0BBF1000F89
:1038A00040F3AA80A04B0BF00F0203EBC20393ED91
:1038B000007B1BF4807F8DED047B4FEA2B1400F01E
:1038C00095809A4BDDE90A01D3E90823FCF7A6FFAE
:1038D000CDE9060104F00F040325944E0CE0E10746
:1038E00008D5DDE90401D6E90023FCF76DFECDE93A
:1038F0000401013564100836002CF0D1DDE9060121
:10390000DDE90423FCF78AFFCDE90601149B002BB7
:1039100040F09C80CDF810B044462846FCF7EAFD04
:10392000DDE90623FCF750FE814B0022FCF796FCF4
:103930000546A1F15076CDE91256002C40F0A48046
:10394000DDE906017B4B0022FCF786FC2A46334664
:10395000CDE90601FDF7C8F8002840F0D982DDE97D
:1039600006012A4606F10043FDF7A0F820BB199B8B
:10397000002BC0F29781BBF10E0F00F393816A4BCD
:1039800003EBCB03D3E900450E9B002B80F235817E
:10399000B8F1000F00F331810ED1664B00222046B2
:1039A0002946FCF711FE02460B46DDE90A01FDF748
:1039B00087F8002800F0A982002425460E9BDB43EF
:1039C00004934E4600272146504600F009FD002D85
:1039D00000F0FC802FB1AF4203D03946504600F0D2
:1039E000FFFC2946504600F0FBFCEFE09DED0A7B12
:1039F00002258DED067B70E722D0CBF100044A4B07
:103A00004A4E04F00F0203EBC203D3E90023DDE9C1
:103A10000A01FCF7D9FDCDE9060124110225002C8D
:103A20003FF474AFE20708D5DDE90601D6E90023CB
:103A3000FCF7CAFDCDE90601013564100836EEE752
:103A40009DED0A7B02258DED067B5FE7DDE9060132
:103A5000394B0022FDF72AF800283FF45BAFB8F19C
:103A6000000F3FF457AF089B002B80DD0BF1FF33B5
:103A7000DDE9060104930022304BFCF7A5FD01357A
:103A8000CDE90601089C48E7274B03EBC40353E943
:103A900002010D9B002B55D002460B460020284901
:103AA000FCF7BCFEDDE91223FCF7D6FBCDE91201E1
:103AB0004C444E46DDE90601FDF736F800F13005CD
:103AC000FCF718FD02460B46DDE90601FCF7C4FBD6
:103AD000DDE9122306F8015BCDE90601FCF7E6FFFC
:103AE000002873D1DDE9062313490020FCF7B4FB5D
:103AF000DDE91223FCF7DAFF002840F0B580A6428A
:103B00003FF435AFDDE912010C4B0022FCF75CFD00
:103B10000A4BCDE912010022DDE90601FCF754FD54
:103B2000CDE90601C6E700BF18560008F0550008A9
:103B300000001C40000014400000F03F0000244042
:103B40000000E03FDDE91223FCF73EFDCDE9120164
:103B500009EB040317934D46DDE90601FCF7E4FF8A
:103B600000F13006FCF7C6FC0B460246DDE9060113
:103B7000FCF772FB05F8016B179B9D42CDE906012E
:103B800034D1A94B0022DDE91201FCF767FB0246A4
:103B90000B46DDE9060109EB0406FCF7A5FF00284A
:103BA00062D1DDE91223A0490020FCF755FB024653
:103BB0000B46DDE90601FCF779FF00283FF4D7AE9C
:103BC000334616F8012D302AFAD01E460199504688
:103BD00000F006FC00233370049B159A0133136038
:103BE000259B002B00F092821E608FE28F4B0022FB
:103BF000FCF7EAFCCDE90601AEE74E4622462B462D
:103C0000DDE90A01FCF70AFEFCF78EFF0746FCF728
:103C100071FC22462B46FCF7D7FC02460B46DDE939
:103C20000A01FCF719FB07F1300C06F801CBA6EBF3
:103C3000090CE04502460B4625D1FCF70FFB224656
:103C40002B46CDE90201FCF74FFF58B9DDE902012F
:103C500022462B46FCF720FF10B9CDF810B0B5E78F
:103C6000FB07FAD5CDF810B033461E4613F8012DE8
:103C7000392A05D19945F8D1049A013204923022AB
:103C800001321A70A2E7694B0022FCF79DFC024644
:103C90000B46CDE90A2300220023FCF7FDFE002895
:103CA000ACD0DAE70D9A002A00F0DE800C9A012AE7
:103CB00000F3BE80169A002A00F0B28003F233436C
:103CC000099C029E029A01211A44504602921F4406
:103CD00000F05CFC054696B1BE42029A029933465A
:103CE000A8BF3B46002FA2EB0302D8BF0A460292B0
:103CF000A6EB0302A7EB0303C4BF16461F46099BAE
:103D000013B30D9B002B00F0B580002C00F0B080A9
:103D100029462246504600F00BFD019A0146054611
:103D2000504600F049FC01990490504600F058FBC1
:103D3000099B1B1B0993049B00F09F80099A19465D
:103D4000504600F0F5FC01900121504600F01EFCA9
:103D50000F9B0446002B00F0DD811A4601465046B9
:103D600000F0E6FC0C9B012B044600F39C80109BAA
:103D7000002B00F08480002306930F9B002B00F0A3
:103D8000CF81236904EB8303186900F091FBC0F134
:103D90002000384410F01F0000F08D801B2800F335
:103DA0008580C0F11C00029B034402930644074433
:103DB000029B002B05DD01991A46504600F014FDC8
:103DC0000190002F05DD21463A46504600F00CFDDB
:103DD0000446149B002B70D00198214600F074FD1E
:103DE00000286ADA0BF1FF330493019900230A22B9
:103DF000504600F017FB0D9B0190002B00F09281C4
:103E0000002329460A22504600F00CFB089B002B99
:103E1000054602DC0C9B022B74DCDDF820807DE083
:103E2000189BC3F136034BE70000E03F000024403D
:103E3000099B08F1FF34A34207DBB8F1000FA3EBA5
:103E400004040CDB029E43463CE7099B0F9A09944D
:103E5000E31A1A44029E0F924346002432E7029B63
:103E6000A3EB080600232DE7099C029E0D9D32E777
:103E7000019B63E7099A019962E7019364E7119B4B
:103E8000C3F31303002B7FF476AF119B23F00043A1
:103E90001B0D1B05002B3FF46EAF029B01330293F9
:103EA0000137012368E7002306936AE71C283FF4E3
:103EB0007FAFC0F120001C3075E7B8F1000FCDF8DE
:103EC00010B027DC0C9B022B24DDB8F1000F7FF42F
:103ED00075AD214643460522504600F0A3FA01463F
:103EE0000446019800F0F0FC40457FF767AD4E4670
:103EF000312306F8013B049B0133049362E5DDF8AE
:103F00002080DFE7DDF82080DFE7CDF810B0444601
:103F10002546ECE70D9B002B00F00981002E05DD06
:103F200029463246504600F05FFC0546069B002BB2
:103F30005AD06968504600F015FA064628B9864BF3
:103F4000024640F2EF21FFF73EBB2A69023292009F
:103F500005F10C010C3001F03FF8012231465046CA
:103F600000F042FC09F10103029308EB09030A93F4
:103F7000109B03F001032F4609930546029B01980D
:103F8000013B21460693FFF77CFA3946089000F181
:103F9000300B019800F098FC2A4680462146504696
:103FA00000F0AEFCC268064602BB0146019800F074
:103FB0008BFC0246314650460D9200F011FADDE9C5
:103FC0000C3242EA0301099B029E194310D1BBF156
:103FD000390F2BD0B8F1000F02DD089B03F1310B34
:103FE000069B83F800B0EEE42846BBE70122E1E738
:103FF000B8F1000F06DB0C9B48EA0308099B58EA5E
:10400000030820D1002AEBDD01990122504600F07F
:10401000EBFB2146019000F057FC002803DCDFD1C8
:104020001BF0010FDCD0BBF1390FD6D1069A392332
:10403000137033461E46013B16F8012C392A54D022
:1040400001321A70BFE4002A07DDBBF1390FEDD051
:10405000069A0BF101031370B5E4029B0A9A03F868
:1040600001BC93422BD0019900230A22504600F054
:10407000D9F9AF4201904FF000034FF00A023946E0
:10408000504607D100F0CEF907460546029B0133A2
:10409000029373E700F0C6F92946074600230A2277
:1040A000504600F0BFF90546F0E7B8F1000F08F1FF
:1040B000FF3609F10102D8BF0026164400270199F6
:1040C0000122504600F090FB2146019000F0FCFBDD
:1040D0000028AEDC02D11BF0010FAAD133461E46E8
:1040E00013F8012D302AFAD06DE49945A2D1049B32
:1040F00001330493312389F8003064E4259BDFF811
:104100005C901BB109F10803259A136048461BB067
:10411000BDE8F08F0C9B012B7FF729AE0F9B069318
:10412000012036E6089B002B7FF7E9AE98464E4605
:1041300001982146FFF7A5F900F1300B06F801BB05
:10414000A6EB09029045B0DD019900230A225046F2
:1041500000F068F90190EBE732550008CC540008F4
:1041600037B5002944D051F8043C0190002BA1F14F
:104170000404B8BFE41800F0E9F81E4A0198136877
:1041800033B96360146003B0BDE8304000F0E4B8B8
:10419000A34208D9256861198B4201BF19685B6881
:1041A00049192160EDE71A465B680BB1A342FAD9C1
:1041B00011685518A5420BD1246821445418A34214
:1041C0001160E0D11C685B6853600C441460DAE74E
:1041D00002D90C230360D6E7256861198B4204BF1E
:1041E00019685B68636004BF491921605460CAE7BD
:1041F00003B030BDE0030020024B0146186800F018
:1042000025B800BF1800002070B50F4C0E4621687D
:10421000054611B900F0D0FE20603146284600F076
:10422000CBFE431C0ED0C41C24F00304A04207D0D4
:10423000211A284600F0C0FE013008BF4FF0FF34BD
:10424000204670BD0446FBE7DC0300202DE9F8435F
:10425000CD1C25F0030508350C2D38BF0C25002D8D
:10426000064601DBA94205D90C23336000273846F6
:10427000BDE8F883DFF8D08000F068F8D8F80030A7
:104280001C4644BB29463046FFF7BEFF431C04468C
:1042900058D1D8F800402746002F43D1002C4BD0EE
:1042A00023683946304604EB030900F085FE81455A
:1042B00042D121686D1A29463046FFF7A5FF01302B
:1042C0003AD023682B442360D8F800305A6862BB88
:1042D000C8F800700FE02268521B20D40B2A17D9AF
:1042E0006119A342256018BF5960636808BFC8F808
:1042F000001062514B60304604F10B0700F02CF8BF
:1043000027F00707231DFA1A1CBFDB1BA350AEE7DB
:104310006268A3420CBFC8F800205A60EBE723464E
:104320006468AEE73C467F68B6E71A465B68A3421E
:10433000FBD100235360DEE70C233360304600F0EE
:104340000BF894E70560D6E7E00300200148FFF78B
:1043500096B800BFD80300200148FFF791B800BF0E
:10436000D803002070B5C46905460E4684B91020F4
:10437000FFF742FF0446E86128B90246164B17488A
:104380006B2100F037FE0023C0E901330360C360F6
:10439000E06840B921220421284600F049FEEB697B
:1043A000E060D86848B100EB860350F8260028B1D9
:1043B00002681A600023C0E9033370BD012101FACD
:1043C00006F4621D9200284600F032FE0028F4D068
:1043D000C0E90164EEE700BFD95400084355000866
:1043E00070B5C46906460D4674B91020FFF704FF86
:1043F0000246F06120B9094B09488F2100F0FAFD0F
:10440000C0E901440460C4603DB1F3696A68DB68D7
:1044100053F82210296043F8225070BDD954000887
:10442000435500082DE9F0410D6907460C461E462C
:1044300001F1140C0020DCF8003099B202FB01619C
:104440001E0C0B0C02FB063389B2013001EB034159
:1044500085424CF8041B4FEA1346ECDC0EB3A3680C
:10446000AB4219DC616838460131FFF77BFF8046BB
:1044700028B902460C4B0D48BA2100F0BBFD226959
:10448000023204F10C0192000C3000F0A5FD21462F
:104490003846FFF7A5FF444604EB850301355E610E
:1044A00025612046BDE8F0813255000843550008DB
:1044B000B0F5803F034636BF03040020102000F112
:1044C0000802B3F1807F38BF10464FEA032238BF9D
:1044D0001346B3F1805F00F1040238BF10464FEA83
:1044E000031238BF1346B3F1804F00F1020238BF08
:1044F00010464FEA830238BF1346002B04DB5B00F3
:1045000001D50130704720207047036813F007027F
:1045100010B501460BD0DC0734D4980749BF5B08BF
:104520009B080B6001205CBF0B60022010BD98B29D
:1045300030BB1B0C1020DCB200F10802002C08BFBD
:1045400010464FEA132208BF134613F00F0400F180
:10455000040208BF10464FEA131208BF134613F0B7
:10456000030400F1020208BF10464FEA930208BF9D
:104570001346DA0702D45B0806D001300B60D5E79A
:104580001046D8E70020D1E72020CFE710B50C4631
:104590000121FFF7E7FE024628B9054B054840F226
:1045A000451100F027FD01234461036110BD00BFE8
:1045B00032550008435500082DE9F04F13690C6986
:1045C0009C42B4BF16460E469C42B4BF9946A146D3
:1045D0009C42B4BFA04698469C42B4BF0D461546C7
:1045E000B368716809EB0807BB4285B0B8BF0131F9
:1045F000FFF7B8FE30B902464B4B4C484FF4B1714F
:1046000000F0F8FC00F1140404EB870B23460022B1
:104610005B4522D305F1140101EB880306F1140C6C
:104620000CEB890C039306F115039C4534BF002362
:1046300001230093ACEB0603153B9B080193039BFE
:10464000029199420CD3002F03DD5BF8043D002B4F
:1046500067D0076105B0BDE8F08F43F8042BD7E7BA
:10466000B1F800A0BAF1000F28D006F11408A14655
:104670004FF0000E58F8042BD9F8003095B29BB2D9
:104680000AFB0533D9F80050120C2D0C73440AFBB9
:10469000025505EB13459BB243EA0543C44549F86F
:1046A000043B4FEA154EE5D8009A019B002A4FEAD9
:1046B000830308BF00232344C3F804E0029BB3F83C
:1046C00002E00431BEF1000F29D0236806F1140581
:1046D0009846A1464FF0000A2A880EFB02A202EB80
:1046E00018429BB243EA024349F8043B55F8043BA5
:1046F000D9F800804FEA134A1FFA88F30EFB0A33F9
:1047000003EB1243AC454FEA134AE5D8009D019AEA
:10471000002D4FEA820208BF002222445360043475
:104720008DE7013F8FE700BF325500084355000871
:104730002DE9F843174612F0030280460D4607D0D4
:10474000264C013A002354F82220FFF76BFE054661
:10475000BF103FD0D8F81C4094B91020FFF74CFD93
:104760000446C8F81C0030B902461D4B1D4840F2F3
:10477000B31100F03FFC0023C0E901330360C360C4
:10478000A66846B940F271214046FFF7FFFE0023BC
:10479000A060064603602C464FF0000907F00103B5
:1047A0007F1053B1294632464046FFF705FF2146A8
:1047B00005464046FFF714FE67B1306838B9324607
:1047C00031464046FFF7F8FE3060C0F800900646DC
:1047D0002C46E3E72846BDE8F88300BFE055000813
:1047E000D9540008435500082DE9F84F0C46496894
:1047F0002569A36805EB6215074691464FEA621AE0
:1048000005F1010843450BDB3846FFF7ABFD0646D3
:1048100048B902462A4B2B484FF4EF7100F0EAFBEF
:1048200001315B00EEE700F1140100230A4618464F
:10483000534538DB20692AEAEA7A01EB8A0104F160
:10484000140319F01F098C4603EB80002FD0C9F127
:10485000200A4FF0000E1A68E34602FA09F242EA13
:104860000E02CBF8002053F8042B98420CF1040CF4
:1048700022FA0AFEEFD8031B153B23F0030304F1D1
:104880001502824288BF00231944BEF1000F18BFF1
:104890004546C1F804E0384635612146FFF7A0FDE2
:1048A0003046BDE8F88F42F8040B0133C0E753F8F7
:1048B000041BCCF8001098420CF1040CF7D8EAE77E
:1048C000325500084355000803690A699B1A30B540
:1048D0000ED11430143100EB820401EB820154F844
:1048E000045D51F8042D954204D006D24FF0FF33F9
:1048F000184630BDA042F2D3FAE70123F8E70000E2
:104900002DE9F74F8A460646114650461446FFF7F2
:10491000DBFF051E12D129463046FFF723FD024674
:1049200028B9414B40F23721404800F063FB012396
:10493000C0E90435104603B0BDE8F08FBCBF534654
:10494000A2463046DAF80410BABF1C4601250025FD
:10495000FFF708FD024618B9334B40F24521E3E763
:10496000DAF810702669C5600AF1140904F1140E12
:1049700000F114050AF1100309EB87080EEB860617
:104980000193AB464FF0000C019B5EF8040B53F80B
:1049900004AF01931FFA8AF183B2CB1A000C63446F
:1049A000C0EB1A4000EB23409BB243EA004376453C
:1049B0004BF8043B4FEA204CE6D8331B153B15342B
:1049C00023F00303B44288BF0023E8184B441C1DA6
:1049D00004302646A5EB090546450ED308F1030130
:1049E000091B21F003010133984538BF0021014420
:1049F00051F8043DABB117619CE706EB050E56F884
:104A0000041BE2464FEA11491CFA81FC514409EBB0
:104A10002C4989B241EA09414FEA294CCEF80010ED
:104A2000DAE7013FE4E700BF3255000843550008CC
:104A30002DE9F7430F46012159EC108B1646FFF77D
:104A400091FC054630B90246234B244840F20F3111
:104A500000F0D0FAC9F30A54C9F313030CB143F4BC
:104A600080130193B8F1000323D068460093FFF749
:104A70004CFD0099D8B1019AC0F1200302FA03F36A
:104A80000B43C2406B610192019BAB61002B0CBFD9
:104A9000012102212961A4B1A4F2334404443C6001
:104AA000C0F135003060284603B0BDE8F08369618D
:104AB000EAE701A8FFF729FD019B6B612030012186
:104AC000E8E705EB8103A0F2324038601869FFF790
:104AD000EFFCC0EB4110E5E73255000843550008F4
:104AE0009368013B10B4936007D59469A34201DB3E
:104AF0000A2902D110BCFEF7B1BB1368581C106024
:104B00001970084610BC7047F8B506460F461446A3
:104B1000D518AC4201D1002007E014F8011B3A4639
:104B20003046FFF7DDFF431CF3D1F8BD2DE9F04718
:104B300006469CB00D4614461F4618B1036A0BB9D1
:104B4000FEF7A0FA6B6ED90705D4AB899A0502D49B
:104B5000A86DFEF794FCAB891B0701D52B699BB9A7
:104B600029463046FEF7BAFB70B16B6EDE0702D401
:104B7000AB899C0504D54FF0FF301CB0BDE8F08731
:104B8000A86DFEF77DFCF6E70023099320238DF83E
:104B90002930039730236B4F8DF82A304FF00108EE
:104BA00023461A7899461AB1252A03F10103F8D150
:104BB000B9EB040A0BD05346224629463046FFF78C
:104BC000A3FF013000F0A580099A5244099299F898
:104BD0000030002B00F09D8000224FF0FF33CDE924
:104BE000053209F10109049207928DF853201A92B7
:104BF0004C46052214F8011B5248FBF7D1FA049ADF
:104C0000D0B9D00644BF20238DF85330110744BFDC
:104C10002B238DF8533099F800302A2B13D00799A5
:104C20004B4600204FF00A0C1A78303A092A1C46ED
:104C30004DD9A8B1079113E0C01B08FA00F010434A
:104C40000490A146D4E7039B191D1B680391002B18
:104C5000BBBF5B4242F0020207930793B8BF0492C6
:104C600023782E2B0DD163782A2B35D1039B1A1D67
:104C70001B680392002B04F10204B8BF4FF0FF330E
:104C80000593DFF8D090217803224846FBF788FA95
:104C900038B1049BA0EB0900402282401343013449
:104CA0000493217828488DF828100622FBF778FA1B
:104CB00000283DD0254810BB039B073323F0070392
:104CC00008330393099B03440134099368E70133D4
:104CD0000CFB01210120A7E70022601C13464FF0C6
:104CE0000A0C017830390929044603D9002A08BF83
:104CF0001346C5E701300CFB03130122F1E703ABB8
:104D000000932A46124B04A93046FDF775FD431C5B
:104D1000D8D16B6ED90705D4AB899A0502D4A86D9A
:104D2000FEF7AEFBAB895B063FF525AF099824E79C
:104D300003AB00932A46064B04A93046FDF7E8FF73
:104D4000E5E700BF8655000890550008F9270008E0
:104D5000094B00088C550008B1F90C202DE9F041F1
:104D6000170705460C4658D44B68002B02DC0B6C29
:104D7000002B01DDE66A16B90020BDE8F0810023B2
:104D800012F480522F682B6033D0606DA3895907CD
:104D900005D56368C01A636B0BB1236CC01A024659
:104DA0000023E66A216A2846B047421CB4F90C3059
:104DB00006D129681D292CD8294ACA40D60728D5EA
:104DC00000226260D9042269226004D5421C01D10C
:104DD0002B6803B96065616B2F600029CCD004F1AA
:104DE0004403994202D02846FFF7BAF900236363CF
:104DF000C2E7216A01232846B047461CC6D12B686A
:104E0000002BC3D01D2B01D0162B01D12F60B3E78F
:104E1000A38943F04003A381AFE70F69002FABD014
:104E200093070E6808BF4B690F6018BF0023A6EBFD
:104E300007088B60B8F1000F9EDD216AA66A434621
:104E40003A462846B047002806DCA38943F04003D1
:104E5000A3814FF0FF3090E70744A8EB0008E9E793
:104E60000100402038B50B6905460C4613B91D46B4
:104E7000284638BD18B1036A0BB9FEF703F9B4F937
:104E80000C30002BF3D0626ED00704D4990502D405
:104E9000A06DFEF7F4FA28462146FFF75DFF636E2A
:104EA000DA070546E4D4A3899B05E1D4A06DFEF79B
:104EB000E7FADDE770B50C46B1F90E10002996B09F
:104EC00015461E4604DB6A4600F054F800280DDA49
:104ED000A38913F0800F4FF000020CBF4FF48061E4
:104EE000402100203260296016B070BD019A02F4A2
:104EF0007042A2F500535A425A414FF48061F0E7E4
:104F00008B8973B59E0705460C4607D504F1470308
:104F1000236023610123636102B070BD01AB6A4667
:104F2000FFF7C8FF009E28463146FFF78FF9B4F916
:104F30000C3038B99A05EFD423F0030343F0020391
:104F4000A381E3E743F08003A381019B2060C4E9D0
:104F50000406002BE0D0B4F90E10284600F01CF82F
:104F60000028D9D0A38923F0030343F00103A381D0
:104F7000D2E7000038B5074C002305460846114625
:104F80002360FDF768FB431C02D1236803B12B604B
:104F900038BD00BFD403002038B5064C00230546B9
:104FA00008462360FDF75CFB431C02D1236803B174
:104FB0002B6038BDD403002038B5064C00230546CD
:104FC00008462360FDF7FEFA431C02D1236803B1B3
:104FD0002B6038BDD40300200A44914200F1FF3316
:104FE00000D1704710B511F8014B03F8014F914201
:104FF000F9D110BD1FB51D46094B1B680646D86880
:1050000052B1084C0091CDE90142074933462A4686
:1050100000F042F800F052F8044C2246F2E700BFDC
:1050200018000020A1550008AE550008DC55000806
:1050300070B5A1FB026535B93146FFF707F90446A3
:1050400028B9204670BD0C2303600024F9E73246DE
:105050002946FEF797F9F4E782B001B901A942B1F8
:105060004BB113780B601278101E18BF012002B0EC
:1050700070471046FBE76FF00100F8E749B1FF2ADF
:1050800085BF8A2303600A704FF0FF3098BF01206C
:1050900070470846704700000EB403B5014603ABE5
:1050A000054853F8042B00680193FFF73FFD02B059
:1050B0005DF804EB03B070471800002008B5062027
:1050C00000F02CF80120FDF7ADFA1F2938B5054690
:1050D0000C4604D9162303604FF0FF3038BDC26B75
:1050E00012B152F821304BB9284600F031F822466F
:1050F00001462846BDE8384000F018B8012B01D120
:105100000020EBE7591C03D1162303600120E5E7DB
:10511000002142F8241020469847F1E7024B01464F
:105120001868FFF7D2BF00BF1800002038B5074C41
:1051300000230546084611462360FDF76BFA431C21
:1051400002D1236803B12B6038BD00BFD403002017
:10515000FDF75EBA2DE9F047089F154604468E46D6
:105160001E46002B40F0D2808A424DD9B2FA82FC12
:10517000BCF1000F02FA0CF3CCF1200E18BF1D4653
:1051800020FA0EFE01FA0CF34EEA030E00FA0CF3BD
:105190000CBF8E461C464FEA1548A8B2BEFBF8F17C
:1051A000220C08FB11EE01FB00F342EA0E4293428F
:1051B00006D9AA1801F1FF3E01D293421ED87146CA
:1051C000D21AA4B2B2FBF8F308FB1322584344EA04
:1051D0000244A04206D92C1903F1FF3201D2A042A9
:1051E0000FD81346241A43EA014027B124FA0CF4DD
:1051F00000233C607B603146BDE8F08702392A44D9
:10520000DEE7023B2C44EDE7002A71D0B2FA82F3CC
:10521000DBB31E46C6F1200302FA06F521FA03F2BB
:10522000B14020FA03F30B434FEA154E00FA06F49F
:105230001FFA85FCB2FBFEF00EFB10211A0C00FBDE
:105240000CF842EA0142904506D9AA1800F1FF3154
:1052500001D290454ED80846A2EB08029BB2B2FBA1
:10526000FEF10EFB112201FB0CFC43EA02439C45BC
:1052700006D9EB1801F1FF3201D29C453DD8114609
:10528000A3EB0C0341EA004101E08B1A01214FEA34
:10529000154E1FFA85FCB3FBFEF0220C0EFB1033FB
:1052A00000FB0CF842EA0342904506D9AA1800F127
:1052B000FF3301D2904523D81846A2EB0802A4B2CE
:1052C000B2FBFEF30EFB132203FB0CFC44EA024488
:1052D000A44506D92C1903F1FF3201D2A44512D8F6
:1052E0001346A4EB0C0443EA0040B4460E467CE7A8
:1052F0001F268FE702382A44AEE702392B44BFE766
:1053000002382A44D9E7023B2C44EAE78B4205D90C
:105310000FB1C7E90001002630466CE7B3FA83FC01
:10532000BCF1000F0FD18B4201D3824209D8841AFD
:1053300061EB030301209E460FB1C7E9004E002632
:1053400059E76046F8E7CCF1200E03FA0CF322FA95
:105350000EF521FA0EF41D4301FA0CF320FA0EF1BA
:1053600019434FEA154900FA0CF61FFA85F8B4FB09
:10537000F9F009FB104A0C0C00FB08F344EA0A445C
:10538000A34202FA0CF206D92C1900F1FF3A01D21D
:10539000A34235D85046E41A89B2B4FBF9F309FBAD
:1053A000134403FB08F841EA0441884506D969180B
:1053B00003F1FF3401D2884525D8234643EA004053
:1053C000A1EB0801A0FB029841454C46434602D39D
:1053D00006D14E4504D2B9EB020468EB050301384F
:1053E000002FACD0321B61EB030101FA0EFE22FA52
:1053F0000CF34EEA030321FA0CF1C7E900319EE7F2
:1054000002382C44C7E7023B2944D7E7F8B500BF70
:10541000F8BC08BC9E467047F8B500BFF8BC08BC95
:045420009E467047ED
:1054280048656C6C6F0D0000256620256620256692
:105438000D0A000048414C207374617475733A205A
:1054480025640D0A0000000057484F5F414D5F4931
:1054580020696E636F72726563743A2025640D0A61
:105468000000000057484F5F414D5F4920636F724D
:10547800726563740D00000000000000010203045F
:1054880000000000000000000102030406070809EC
:10549800494E4600696E66004E414E006E616E00D0
:1054A80030003031323334353637383941424344AD
:1054B8004546003031323334353637383961626326
:1054C80064656600496E66696E697479004E614E5E
:1054D800005245454E54206D616C6C6F63207375A6
:1054E80063636565646564002E2E2F2E2E2F2E2E85
:1054F8002F2E2E2F2E2E2F2E2E2F6E65776C696253
:105508002D342E362E302E32303236303132332F83
:105518006E65776C69622F6C6962632F7374646C53
:1055280069622F64746F612E630042616C6C6F63F3
:1055380020737563636565646564002E2E2F2E2EB7
:105548002F2E2E2F2E2E2F2E2E2F2E2E2F6E6577AE
:105558006C69622D342E362E302E32303236303190
:1055680032332F6E65776C69622F6C6962632F73B3
:1055780074646C69622F6D707265632E6300232DED
:10558800302B2000686C4C00656667454647004331
:1055980000504F534958002E002C2066756E6374D6
:1055A800696F6E3A2000617373657274696F6E205B
:1055B80022257322206661696C65643A2066696CED
:1055C8006520222573222C206C696E6520256425B0
:1055D8007325730A00000000050000001900000090
:1055E8007D000000000000000080E03779C34143DF
:1055F800176E05B5B5B89346F5F93FE9034F384D31
:10560800321D30F94877825A3CBF737FDD4F1575DC
:10561800000000000000F03F0000000000002440EF
:1056280000000000000059400000000000408F40CA
:10563800000000000088C34000000000006AF84035
:105648000000000080842E4100000000D012634159
:105658000000000084D797410000000065CDCD41CF
:10566800000000205FA00242000000E876483742B0
:10567800000000A2941A6D42000040E59C30A2424E
:105688000000901EC4BCD64200003426F56B0C43C3
:105698000080E03779C3414300A0D885573476436A
:1056A80000C84E676DC1AB43003D9160E458E143CB
:1056B800408CB5781DAF154450EFE2D6E41A4B4440
:1056C80092D54D06CFF08044F64AE1C7022DB54485
:1056D800B49DD9794378EA44002020202020202056
:1056E800202028282828282020202020202020208A
:1056F800202020202020202020881010101010109A
:1057080010101010101010101004040404040404E5
:10571800040404101010101010104141414141417F
:105728000101010101010101010101010101010161
:105738000101010110101010101042424242424271
:105748000202020202020202020202020202020231
:1057580002020202101010102000000000000000D9
:105768000000000000000000000000000000000031
:105778000000000000000000000000000000000021
:105788000000000000000000000000000000000011
:105798000000000000000000000000000000000001
:1057A80000000000000000000000000000000000F1
:1057B80000000000000000000000000000000000E1
:1057C80000000000000000000000000000000000D1
:0C57D800000000000000000000000000C5
:0857E400BCA9FF7F01000000D9
:0457EC00D10B0008D5
:0457F000AD0B0008F5
:1057F40001000000100000000024F400000000007C
:1058040003000000980200201C000020000000009B
:10581400980200200003002068030020000000001C
:105824000000000000000000000000000000000074
:105834000000000000000000000000000000000064
:105844000000000000000000000000000000000054
:105854000000000000000000430000000000000001
:105864000000000000000000000000000000000034
:1058740000000000000000004300000000000000E1
:105884000000000000000000000000000000000014
:1058940000000000000000004300000000000000C1
:1058A40000000000000000000000000000000000F4
:1058B40000000000000000004300000000000000A1
:1058C40000000000000000000000000000000000D4
:1058D4000000000000000000430000000000000081
:1058E40000000000000000000000000000000000B4
:1058F4000000000000000000430000000000000061
:105904000000000000000000000000000000000093
:105914000000000000000000430000000000000040
:105924000000000000000000000000000000000073
:1059340000000000000000007D50000859500008DD
:1059440000000000E05600089F550008DC550008E0
:10595400DC550008DC550008DC550008DC5500085F
:10596400DC550008DC550008DC550008DC5500084F
:10597400FFFFFFFFFFFFFFFFFFFFFFFFFFFF000031
:1059840001004153434949000000000000000000A9
:105994000000000000000000000000000000000003
:1059A400000041534349490000000000000000008A
:1059B40000000000000000000000000000000000E3
:0459C40000000000DF
:040000050800266960
:00000001FF
